:400000000080002011000000A9060000A906000008B5044B1A6803F53F5302331A6000F063FB00BFFA46004010B5054C237833B9044B13B10448AFF300800123237010BDBB
:400040008081FF1F0000000070440000084B10B51BB108490848AFF300800848036803B910BD074B002BFBD0BDE81040184700BF000000008481FF1F70440000C880FF1F2A
:400080000000000008B500F0DBFE00F001FF80B20A4A136818441060938801339BB2938042F63E52934208D9054A1060034AD3800023136093800123137208BD9C81FF1F1F
:4000C000CC81FF1F70B5C6B062B60025ADF894508DF8965000F070FF00F096FE00F0F2FE032125A801F05CF901210DF1930001F071F900F0DDFF03A800F0D8F8284600F02C
:40010000F1FE5E4800F01AFF5D4800F06FFF00F08FFE2C465B4B1B7A13F0FF0F58D0594B00221A72DB88584A1068B0FBF3F001F031FD064601F0D6FE81B203A800F0CCF89C
:4001400064B90DF1950103A800F0F0F818B101248DF8944002E000238DF89430012D0CD14A49304601F022FE01F082FB02460B46474926A802F086FB27E0022D0FD1454915
:40018000304601F055FC414901F010FE01F070FB02460B46404926A802F074FB15E04DB9304601F065FB02460B463C4926A802F069FB0AE0032D08D1304601F059FB024657
:4001C0000B46374926A802F05DFB26A800F00EFF01F0B0F810F0100F05D124E00DF10A0103A800F0A3F803A800F068F80028F5D0244B00241C721C609C808DF894409DF8EB
:40020000935005F00305284600F06CFE01F0ACF801F006F99DF89320224926A802F032FB26A800F0E3FE01F085F810F0010F3FF471AF01F0E9F8064683B2012B0CD90DF11F
:40024000950103A800F072F818B101248DF8944002E000248DF8944001F072F801F0DAF89DF895309DF89620009232460E4926A802F008FB26A800F0B9FE4BE7850000002A
:40028000784400009C81FF1FCC81FF1F00002041884400000000FA439C440000B4440000CC440000E4440000004500000023A0F88430A0F88030A0F882307047B0F8840039
:4002C000B0FA80F040097047B0F884003F2894BF00200120704700BF38B504460D46FFF7F3FF78B1B4F8803001339BB2A4F88030B4F88420013AA4F884203F2B02D9002350
:40030000A4F88030B4F8823024F8135001339BB2A4F88230B4F884200132A4F884203F2B02D90023A4F8823038BD00BF38B504460D46FFF7C3FFB0B9B4F8803034F8133022
:400340002B80B4F8803001339BB2A4F88030B4F88420013AA4F884203F2B06D90023A4F88030012038BD002038BD012038BD00BFFEE700BFF0B40022174611E050F827609F
:40038000F3B226F0FF0608E001EB420511F812406D78A5550132013BDBB2002BF4D10137202FEBD9F0BC7047064B1B78DBB203F00701054A11701B09013213704422034BC4
:4003C0001A707047CF0100496E5800407658004008B50A46002101F0DCFD08BD08B501F0CDFD08BD70B50024314B1C80502202331A70032602331E801C2202331A701925CC
:4004000002331D80182202331A70042229492A48FFF7E4FF0222294B1A7008224FF040231A7003F500731E70254B1B78DBB225490B70254B1A8041F25122023B1A800CE0B1
:40044000224B1B7803F0010343EA440404F003044FF4F07001F098F8013D0DB1032CEFD115B90320FFF784FF194B4FF480721A8007221A70002217490A70482002310870A7
:400480001A700222033B1A7004220A331A70124A137843F007031370013A137843F001031370013A137843F08003137070BD00BF804000404C080048004100400043004027
:4004C00008010049A146004022420040254200400440004006400040A2430040032816D810B44000C0B20A4B53F820101A1892F820400A7822430A700130C0B253F82020FF
:40050000184490F8201013780B43137010BC704724450000032818D810B44000C0B20B4B53F820101A1892F820400A7822EA04020A700130C0B253F82020184490F8201091
:40054000137823EA0103137010BC704724450000012809D8054B03EB8002926A184490F8301013780B431370704700BF2445000001280AD8054B03EB8002926A184490F8A0
:400580003010137823EA0103137070472445000038B572B6344A137843F00403137000240BE0324863001A19510001440A46098F506BFFF70DFF0134E4B2082CF1D900249A
:4005C0000CE02A48A20011194B000344B3F87420196FD86EFFF702FF0134E4B2012CF0D923494FF09040FFF7C5FE0A22214B1A7021490B7843F002030B7010310B7843F08D
:4006000002030B701D4C237843F040032370A1F5863151390B7843F010030B7018491948FFF7DCFE082218491848FFF7D7FE082217491848FFF7D2FE174A137843F00803F0
:400640001370164D61232B70FFF7CCFE81232B700122134B1A70FFF7A7FE0E2221461148FFF7BCFE38BD00BFE846004024450000840000488358004003500140A043004007
:4006800030080048C05100403C080048125100404408004822510040224300400048004004000840B043004008B501F03BFC03680C2B00D1FEE7FEE708B5094B1A6810443E
:4006C000084BC31AB3F5006F02DC054B186005E001F028FC0C2303604FF0FF32104608BDCC80FF1FF081FF1F08B5104E104D16E029686B68AC68002204E051F8040B43F87E
:40070000040B0432A242F8D1E868002203E0002143F8041B04328242F9D11035013E002EE6D101F005FCFFF7CDFCFEE7010000008847000008B5104A104B1A60104A1368A3
:4007400043F40073136000230AE0032B03D80D4A52F8231000E00C490C4A42F8231001332F2BF2D90A4B1A780A4B1A70074A0A4B1A60FFF70DFF08BD0004FA050CED00E098
:4007800014ED00E000000000A90600000080FF1FBC760040C080FF1F08ED00E001BE704708B5034B1B7A00FB03F000F0EDFE08BDD080FF1F70B504460E46074B1D681F2873
:4007C00002D90020FFF7EAFF04F01F04103455F8240045F8246070BD08ED00E038B504460D46072902D90020FFF7D8FF1F2C02D90020FFF7D3FF04F01F0000F1604000F567
:4008000064406D01EDB2057038BD00BF38B59DF81040651EEDB2032D51D8013809282ED8DFE800F0052D2D052D2D0F192D230F2B03D92548007840B222E02448007840B26F
:400840001EE00F2B03D92248007840B218E02148007840B214E00F2B03D91F48007840B20EE01E48007840B20AE00F2B03D91C48007840B204E01B48007840B200E00020AD
:4008800001EB401101FB02F2D20B91B20D2B0BD8C3F10E0192B20A4191B2621E124800EB82020133937005E0631E0F4A02EB83030F229A70013C0C4B23F8241038BD002056
:4008C000FFF76CFF38BD00BF180100491C010049190100491D0100491A0100491E0100491B0100491F010049A881FF1FF8B5074600F052FE06460D4D2B7843F003032B7019
:400900000B4C237843F0030323700A4B1F700320FFF746FF2B7803F0FC032B70237803F0FC032370304600F03BFEF8BDF8460040F946004092580040F8B504460022B94BCF
:400940001A74012859D13422B74B1A70042202331A70062201331A70002501331D7001331D703F2201331A7002331D7001331D7001331D7001260A331E70502203F52763F9
:400980001A70072201331A70292201331A7001331D70552203331A705A2201331A7001331D70022702331F70122201331A70282201331A70EB2201331A704420FFF796FF29
:4009C00058229A4B1A7001331D70052205331A7001331F7001331D7001331D70284600F035FD42F6AB12924B1A603146304600F051FD90492846FFF7DDFE022C59D138224E
:400A0000894B1A70042202331A70062201331A70002501331D7001331D703F2201331A7002331D7001331D7001331D7001270A331F70502203F527631A70272201331A700A
:400A40002C2201331A7001331D70552203331A705A2201331A70052601331E7002331F70112201331A70192201331A70972201331A704420FFF73AFF58226C4B1A700133A4
:400A80001D7005331E70022201331A7001331D7001331D70284600F0D9FC4FF47A42644B1A603946304600F0F5FC63492846FFF781FE032C59D138225B4B1A700422023381
:400AC0001A70062201331A70002501331D7001331D703F2201331A7002331D7001331D7001331D7001270A331F70502203F527631A70272201331A702C2201331A700133C3
:400B00001D70552203331A705A2201331A70052601331E7002331F70112201331A70192201331A70972201331A704420FFF7DEFE58223E4B1A7001331D7005331E70022237
:400B400001331A7001331D7001331D70284600F07DFC4FF47A42364B1A603946304600F099FC36492846FFF725FE042C59D138222D4B1A70042202331A70062201331A7063
:400B8000002401331C7001331C703F2201331A7002331C7001331C7001331C7001260A331E70502203F527631A70272201331A702C2201331A7001331C70552203331A70B7
:400BC0005A2201331A70052501331D7002331E70112201331A70192201331A70972201331A704420FFF782FE5822104B1A7001331C7005331D70022201331A7001331C704C
:400C000001331C70204600F021FC4FF47A42084B1A603146284600F03DFC09492046FFF7C9FDF8BDA881FF1F004E004094580040D081FF1FB50E0000B90E0000BD0E0000B9
:400C4000C10E00002DE9F04182B0384D4FF0010885F80080364E00247474102000F008FC07212046FFF7BAFD0427324B1F7001331C7007331C70304A137843F018031370E0
:400C80002E4B1C7003F2F5231C7001331C700A22A3F209331A7001331C7002331C705B2205331A705E2201331A7004331C701422A3F68C231A70CDF8008010234FF4004289
:400CC00047F602710320FFF7A1FD0223009310234FF4004249F2DA012046FFF797FD0323009310234FF4004249F2DA012046FFF78DFD009710234FF4004249F2DA012046DF
:400D0000FFF784FD2B78013B06EB83039A780C4B1A702B78013B36F823200A4B1A802878FFF70AFE02B0BDE8F08100BFE080FF1FA881FF1F96580040075B004093580040CF
:400D40000E4E00400C4E004070B500F025FC0646244B1B78244B1A7842F001021A701A7842F010021A7010331A7842F001021A701A7842F010021A701C4D2B7843F0020361
:400D80002B701B4C237843F002032370194A137843F0030313700320FFF702FD2B7803F0FD032B70237803F0FD032370124A137843F0060313707A22104B1A70104A1378AB
:400DC00043F0010313701032137843F00103137001230C4A1360A2F5C0721360304600F0DFFB70BDE080FF1FAA430040F8460040F946004091580040775800408258004022
:400E0000A243004080E200E008B5084B9B7C4BB9064BDB7C13F0FF0F01D1FFF713FF0122024B9A74FFF790FF08BD00BFA881FF1F024A137843F0010313707047004E0040E9
:400E40000E4B1B7803F00303012B03D80C4B188880B209E00A4A12780A49087842EA0020032B01D1084B1B78084B1B7C13F0FF0F02D00022054B5A7400B27047144E004079
:400E8000104E0040114E0040124E0040A881FF1F064B5B69C01A4FF47A7303FB00F0044B1B6890FBF3F000B2704700BFA881FF1FD081FF1F704700BF704700BF704700BF81
:400EC000704700BF10B5002404E02046FFF722FB0134E4B2032CF8D9FF22014B1A7010BDE180FF1F10B50446FFF7ECFF2046FFF7F5FA014B1C7010BDE180FF1F024B1B68F9
:400F0000C3F8B400704700BF08ED00E04001C0B2014B1870704700BF1DE400E04FF00052014B1A60704700BF00E100E04FF00052014B1A60704700BF80E100E010B504466E
:400F4000FFF7F4FF2046FFF7D9FF0720FFF7DEFFFFF7E4FF10BD00BF7222084B1A70202202331A700622A3F5B4731A70472210331A70002203F5AA731A7070478965004036
:400F800010B500F009FB04460A4A137843F0200313700232137843F010031370043A137843F01003137000F0E1FA204600F0F8FA10BD00BF9965004008B5054B1B7823B903
:400FC000FFF7CAFF0122024B1A70FFF7D9FF08BDC081FF1F034B1B7813F0040FFAD1024B18707047676500404464004038B5074B1B782BB938BDFFF7EDFF0134A4B201E00B
:4010000005460024285D0028F5D138BDC081FF1F38B50024134B1C70012512331D7000F0BBFA114A137843F01003137000F0B8FA07210E4B197002220D4B1A602846FFF72D
:40104000CDFB0C492846FFF7B5FB10220A4B1A700A4B1C700A4B1C700A4B1C70482000F097F938BD75640040976400408664004080E100E0D9100000D481FF1FD981FF1F1B
:40108000D881FF1FDA81FF1F08B500F085FA064A137843F02003137000F082FA034A137843F00103137008BD966400407564004008B5074B1B7823B9FFF7AAFF0122044BBB
:4010C0001A70FFF7E1FF0222024B1A6008BD00BFC281FF1F00E100E008B5894B1B78DAB2884B1B7813F0400F40F00881854B1B7813F0100F00F0FF8012F0200F03D102F0F3
:401100000903092B15D17F4B1B78DBB2112B10D17D490B7803F0DF030B707C4B197801F0DF011970197841F0100119701021754B197012F0010F00F0E18012F0080F53D0C2
:40114000734B1B7813F0010F37D0724B1A78D2B2714B1B78DBB29A421BD26E4A1378DBB26E490968CB5CDBB269490B7005216C4B1970FF215F3B1970002140331970137862
:401180000133DBB21370614A137843F0020313700FE0FF235E4A137005216F3211705F3A137000225F4B1A70584A137843F0060313701222534B1A7008BD0122584B1A70A7
:4011C000FF225F3B1A70002240331A7011224D4B1A704E4A137843F0200313704A4A137843F02003137008BD464B1B78DBB2112B2DD14D4B1A78D2B24C4B1B78DBB29A4251
:4012000016D2434B1978C9B201226F331A70FF225F3B1A70002240331A70434A1378DBB243480068C15413780133DBB2137008BD11223B4B1A70FF225F3B1A70002240331B
:401240001A70324A137843F04003137008BD2D4B1B78DBB2122B4AD112F0020F2FD12D4B1A78D2B22C4B1B78DBB29A4216D2294A1378DBB229490968CB5CDBB224490B7029
:401280000521274B1970FF215F3B197000214033197013780133DBB2137008BDFF231C4A137005216F3211705F3A137000221D4B1A70164A137843F00403137008BDFF2307
:4012C000134A137015216F3211705F3A13700022144B1A700D4B1A7802F0FD021A701A7842F001021A701022064B1A7008BD0020FFF754FA08BD1022024B1A7008BD00BF51
:4013000067640040D481FF1F87640040D981FF1F06640040D881FF1FDB81FF1FE481FF1F7564004056640040DA81FF1FDC81FF1FE081FF1F014B1878704700BFD981FF1F1E
:401340000221064B1960064B18781A7802F0F2021A70044B196000F00F00704780E100E0D981FF1F00E100E00221064B1960064B18781A7802F02F021A70044B196000F0E0
:40138000F000704780E100E0D981FF1F00E100E000F07F00014B1870704700BF26640040024658B102230648036006480260064A11700021054A1170054A1360704700BFB8
:4013C00080E100E0E481FF1FDB81FF1FD881FF1F00E100E0024658B102230648036006480260064A11700021054A1170054A1360704700BF80E100E0E081FF1FDC81FF1F6B
:40140000DA81FF1F00E100E0014B1878704700BFD881FF1F0022014B1A707047D881FF1F0022014B1A707047DA81FF1F10B5002404E02046FFF79CF80134E4B2012CF8D9D5
:40144000FF22014B1A7010BDE280FF1F10B50446FFF7ECFF2046FFF77BF8014B1C7010BDE280FF1F014B188880B2704780400040034B1A7800F0F80010431870704700BF56
:4014800082400040024B187800F00700704700BF8240004070B505460E46FFF7F3FF0446FFF7E0FFA84256D02B4B1B7803F0010294B900B185B938B9284B1D80284A1378CA
:4014C00003F0BF03137070BD254A137843F040031370224B1D8070BD22B3002321490B7001240F310C7004310B700C390B7803F07F030B701A4B1B7813F0080F00D08DB90F
:40150000194B18800721013B1970164B1B7813F0010FFAD110490B7803F0FE030B700021104B19700C4B1B7813F0010F0DD00E4B1D800EB1032200E001220A4B1A70094BB6
:401540001B7813F0010FFAD170BD044B1D8002490B7813430B7070BDA243004080400040824000400140004002400040054A137843F0040313701032137843F004031370CA
:40158000704700BFA24300400230800803D000BF01380046FCD17047EFF3108072B6704780F31088704700BF81F0004102E000BF83F0004330B54FEA41044FEA430594EA04
:4015C000050F08BF90EA020F1FBF54EA000C55EA020C7FEA645C7FEA655C00F0E2804FEA5454D4EB5555B8BF6D420CDD2C4480EA020281EA030382EA000083EA010180EA7E
:40160000020281EA0303362D88BF30BD11F0004F4FEA01314FF4801C4CEA113102D0404261EB410113F0004F4FEA03334CEA133302D0524263EB430394EA050F00F0A780CA
:40164000A4F10104D5F1200E0DDB02FA0EFC22FA05F2801841F1000103FA0EF2801843FA05F359410EE0A5F120050EF1200E012A03FA0EFC28BF4CF0020C43FA05F3C01866
:4016800051EBE37101F0004507D54FF0000EDCF1000C7EEB00006EEB0101B1F5801F1BD3B1F5001F0CD349085FEA30004FEA3C0C04F101044FEA445212F5800F80F09A8093
:4016C000BCF1004F08BF5FEA500C50F1000041EB045141EA050130BD5FEA4C0C404141EB010111F4801FA4F10104E9D191F0000F04BF01460020B1FA81F308BF2033A3F1D3
:401700000B03B3F120020CDA0C3208DD02F1140CC2F10C0201FA0CF021FA02F10CE002F11402D8BFC2F1200C01FA02F120FA0CFCDCBF41EA0C019040E41AA2BF01EB045135
:40174000294330BD6FEA04041F3C1CDA0C340EDC04F11404C4F1200220FA04F001FA02F340EA030021FA04F345EA030130BDC4F10C04C4F1200220FA02F001FA04F340EA2F
:401780000300294630BD21FA04F0294630BD94F0000F83F4801306BF81F480110134013D4EE77FEA645C18BF7FEA655C29D094EA050F08BF90EA020F05D054EA000C04BF66
:4017C0001946104630BD91EA030F1EBF0021002030BD5FEA545C05D14000494128BF41F0004130BD14F580043CBF01F5801130BD01F0004545F0FE4141F470014FF0000045
:4018000030BD7FEA645C1ABF194610467FEA655C1CBF0B46024650EA013406BF52EA033591EA030F41F4002130BD00BF90F0000F04BF0021704730B54FF4806404F13204CE
:401840004FF000054FF0000150E700BF90F0000F04BF0021704730B54FF4806404F1320410F0004548BF40424FF000013EE700BF42004FEAE2014FEA31014FEA02701FBF49
:4018800012F07F4393F07F4F81F06051704792F0000F14BF93F07F4F704730B54FF4607401F0004521F0004120E700BF50EA010208BF704730B54FF000050AE050EA010279
:4018C00008BF704730B511F0004502D5404261EB41014FF4806404F132045FEA915C3FF4DCAE4FF003025FEADC0C18BF03325FEADC0C18BF033202EBDC02C2F1200300FABA
:4019000003FC20FA02F001FA03FE40EA0E0021FA02F11444C1E600BF4FF0FF3C06E000BF4FF0010C02E000BF4FF0010C4DF804CD4FEA410C7FEA6C5C4FEA430C18BF7FEAAF
:401940006C5C1BD001B050EA410C0CBF52EA430C91EA030F02BF90EA020F0020704710F1000F91EA030F58BF994208BF90422CBFD8176FEAE37040F0010070474FEA410C5A
:401980007FEA6C5C02D150EA013C07D14FEA430C7FEA6C5CD6D152EA033CD3D05DF8040B704700BF8446104662468C461946634600E000BF01B5FFF7B7FF002848BF10F1A9
:4019C000000F01BD4DF808EDFFF7F4FF0CBF012000205DF808FB00BF4DF808EDFFF7EAFF34BF012000205DF808FB00BF4DF808EDFFF7E0FF94BF012000205DF808FB00BFB6
:401A00004DF808EDFFF7CEFF94BF012000205DF808FB00BF4DF808EDFFF7C4FF34BF012000205DF808FB00BF80F0004002E000BF81F0004142001FBF5FEA410392EA030F82
:401A40007FEA226C7FEA236C6AD04FEA1262D2EB1363C1BFD218414048404140B8BF5B42192B88BF704710F0004F40F4000020F07F4018BF404211F0004F41F4000121F0D1
:401A80007F4118BF494292EA030F3FD0A2F1010241FA03FC10EB0C00C3F1200301FA03F100F0004302D5494260EB4000B0F5000F13D3B0F1807F06D340084FEA310102F1F1
:401AC0000102FE2A51D2B1F1004F40EBC25008BF20F0010040EA03007047490040EB000010F4000FA2F10102EDD1B0FA80FCACF1080CB2EB0C0200FA0CF0AABF00EBC250F5
:401B000052421843BCBFD0401843704792F0000F81F4000106BF80F400000132013BB5E74FEA41037FEA226C18BF7FEA236C21D092EA030F04D092F0000F08BF08467047DB
:401B400090EA010F1CBF0020704712F07F4F04D1400028BF40F00040704712F100723CBF00F50000704700F0004343F0FE4040F4000070477FEA226216BF08467FEA23638C
:401B80000146420206BF5FEA412390EA010F40F4800070474FF0000304E000BF10F0004348BF40425FEA000C08BF704743F0964301464FF000001CE050EA010208BF704766
:401BC0004FF000030AE000BF50EA010208BF704711F0004302D5404261EB41015FEA010C02BF84460146002043F0B64308BFA3F18053A3F50003BCFA8CF2083AA3EBC253BE
:401C000010DB01FA02FC634400FA02FCC2F12002BCF1004F20FA02F243EB020008BF20F00100704702F1200201FA02FCC2F1200250EA4C0021FA02F243EB020008BF20EA0A
:401C4000DC7070474FF0FF0C1CEAD0521EBF1CEAD15392EA0C0F93EA0C0F6FD01A4480EA010C400218BF5FEA41211ED04FF0006343EA501043EA5111A0FB01310CF000402C
:401C8000B1F5000F3EBF490041EAD3715B0040EA010062F17F02FD2A1DD8B3F1004F40EBC25008BF20F00100704790F0000F0CF0004C08BF49024CEA502040EA51207F3AA2
:401CC000C2BFD2F1FF0340EAC250704740F400004FF00003013A5DDC12F1190FDCBF00F000407047C2F10002410021FA02F1C2F1200200FA02FC5FEA310040F1000053EA5B
:401D00004C0308BF20EADC70704792F0000F00F0004C02BF400010F4000F013AF9D040EA0C0093F0000F01F0004C02BF490011F4000F013BF9D041EA0C018FE70CEAD153AB
:401D400092EA0C0F18BF93EA0C0F0AD030F0004C18BF31F0004CD8D180EA010000F00040704790F0000F17BF90F0004F084691F0000F91F0004F14D092EA0C0F01D1420265
:401D80000FD193EA0C0F03D14B0218BF084608D180EA010000F0004040F0FE4040F40000704740F0FE4040F4400070474FF0FF0C1CEAD0521EBF1CEAD15392EA0C0F93EA72
:401DC0000C0F69D0A2EB030280EA010C49024FEA402037D04FF0805343EA111143EA10130CF000408B4238BF5B0042F17D024FF4000C8B4224BF5B1A40EA0C00B3EB510F35
:401E000024BFA3EB510340EA5C00B3EB910F24BFA3EB910340EA9C00B3EBD10F24BFA3EBD10340EADC001B0118BF5FEA1C1CE0D1FD2A3FF650AF8B4240EBC25008BF20F024
:401E4000010070470CF0004C4CEA50207F32C2BFD2F1FF0340EAC250704740F400004FF00003013A37E792F0000F00F0004C02BF400010F4000F013AF9D040EA0C0093F065
:401E8000000F01F0004C02BF490011F4000F013BF9D041EA0C0195E70CEAD15392EA0C0F08D142027FF47DAF93EA0C0F7FF470AF084676E793EA0C0F04D14B023FF44CAFD5
:401EC00008466EE730F0004C18BF31F0004CCAD130F000427FF45CAF31F000437FF43CAF5FE700BF42000ED2B2F1FE4F0BD34FF09E03B3EB126209D44FEA002343F00043BC
:401F000023FA02F070474FF00000704712F1610F01D1420202D14FF0FF3070474FF00000704700BF014B1868704700BF4481FF1F0E4B70B51E460E4C0025E41AA410A54290
:401F400004D056F8253098470135F8E702F00AFC084B094C1E46E41AA4100025A54204D056F8253098470135F8E770BD7047000070470000704700007847000010B5431E92
:401F80000A44914204D011F8014B03F8014FF8E710BD03460244934202D003F8011BFAE770472DE9F04788B0149F002B1E461299B8BF03F1004327F02007B6BF1E460023A1
:401FC0002D23462F1446109DDDF84CA00B7003D0452F03D1013501E0032300E0022307AA049206AA03928DE828042246334600F003FD472F804602D1119BDB0728D5462F6F
:4020000008EB050911D198F80030302B0AD10022002320463146FFF7D5FC18B9C5F10105CAF80050DAF8003099440022002320463146FFF7C7FC08B9302202E0CDF81C901F
:4020400006E0079B994503D9591C07911A70F8E74046079B159AC8EB0303136008B0BDE8F087034673B50029B8BF494203F8022BB4BF2D222B22092942701ADD0DF107021C
:4020800016460A2591FBF5F405FB1411092C01F1300102F8011D2146F4DC3031541E02F8011CB4421A460AD214F8012B03F8012BF7E71A463024214402F8024B5970101AA8
:4020C00002B070BD2DE9F04F91B00C46DDF8688016461F46054601F027FA03681846099300F0F4FB00230E93D8F800300A90073323F0070303F1080294F81890D4F800B097
:40210000C8F80020D3E90023C4E91223D4F84CA0D4F848802AF000430B934FF0FF32A74B40460B9902F066F9A0B94FF0FF32A34B40460B99FFF75AFC60B9002200234046C9
:402140005146FFF749FC10B12D2384F843309C4B9C4A0AE0424653464046514602F04AF9002800F09281984B984AB9F1470F8CBF90469846032323612BF0040323604FF0E6
:40218000000A3DE0B9F1670F00F08A81B9F1470F00F0868123600193636800210DF13302059002920093424653460691CDF81090CDF80CE02846FFF7F4FE09F0DF03472B83
:4021C000804600F08481B9F1650F0D9900F28D8101394A4604F150000D91FFF742FF0E9A82468318012A236100F37C812268D10700F178819DF8333013B12D2384F843308B
:40220000009733460FAA2146284600F09FF9013002D14FF0FF3096E123685A0501D4236965E0B9F1650F40F2D580D4E9120100220023FFF7C7FB78B30123654A31462846AA
:40224000B8470130E5D00E9B0D9A9A420BDB2368D80708D423689B0740F111814FF0000804F1190906E10A9B099A31462846B8470130CED04FF0000804F11A090E9B013BAD
:402280009845E7DA01234A4631462846B8470130BFD008F10108F1E70D9B002B29DC01234B4A31462846B8470130B2D00D9B23B90E9B13B92368D907CCD50A9B099A314662
:4022C0002846B8470130A4D04FF0000904F11A0A0D9B5B42994509DA0123524631462846B847013095D009F10109F1E70E9B4246A7E00E9AA36D9A42A8BF1A46002A91463F
:4023000006DC4FF0000A29EAE97904F11A0B11E01346314642462846B8470130F1D178E701235A4631462846B84701303FF471AF0AF1010AA36DC9EB03029245F0DB08EB4B
:4023400003090D9A0E9B9A420FDB2368DA070CD40E9B0D9A9844C9EB08089B1A9845A8BF9846B8F1000F08DC0FE00A9B099A31462846B8470130EBD14BE743464A463146C2
:402380002846B84701303FF444AF4FF0000928EAE87804F11A0A09E00123524631462846B84701303FF435AF09F101090D9A0E9B9B1AC8EB03039945EEDB4BE7FFFFEF7FAE
:4023C000A6450000AA450000AE450000B2450000B64500000E9A012A01DCDB0738D50123424631462846B84701303FF412AF0A9B099A31462846B84701303FF40AAFD4E9C4
:40240000120100220023FFF7DDFA20B14FF0000804F11A090EE00E9B08F10102013B19E001234A4631462846B84701303FF4F1AE08F101080E9B013B9845F1DB534604F1C6
:40244000500231462846B84701307FF403AFE0E64246012331462846B8470130EED1D8E601234A4631462846B84701303FF4D1AE08F10108E3680F9A9B1A9845F0DBE068B6
:402480000F9B9842B8BF18465DE062680EA8531C0DF1340E4BF480637FF474AE062201E012B90122626075E6002106910DF133018DE80C00236005904246CDF81090CDF857
:4024C0000CE0029153462846FFF76BFD80460D9BD81C02DB626893421DDDA9F102095FFA89F970E60133236184E6B9F1660F14D10029636807DD216113B92268D2071DD5A9
:4025000001330B4419E013B92268D00701D5023313E0012311E04FF067090D9B0E9A934205DB22682361D10708D5013305E0002BD4BFC3F102030123134423610D9B4FF0F2
:40254000000AA36556E611B0BDE8F08F2DE9F04791461F460A698B6806469342B8BF1346C9F8003091F843200C46DDF8208012B10133C9F800302368990642BFD9F8003090
:402580000233C9F80030256815F0060510D104F1190A07E00123524639463046C04701301AD00135E368D9F800209B1A9D42F1DB94F843302268003318BF012392060FD5A0
:4025C000E118302081F843005A1C94F845102244023382F8431003E04FF0FF30BDE8F08704F1430239463046C0470130F4D02268D9F80050E36802F00602042A08BF5D1B22
:402600002269A3680CBF25EAE57500259342C4BF9B1AED184FF000091A344D4509D00123224639463046C0470130D5D009F10109F3E70020BDE8F0872DE9F04317460A7EF2
:4026400085B06E2A984606460C460C9B01F1430E00F0AE8011D8632A22D009D8002A00F0BB80582A40F0CA8081F84520834955E0642A1ED0692A1CD0C0E0732A00F0B08038
:4026800009D86F2A2ED0702A40F0B8800A6842F020020A603EE0752A24D0782A3AD0ADE01A6801F14205111D1960136884F84230A8E021681A6811F0800F02D0111D19601F
:4026C00008E011F0400F02F10401196002D0B2F9003000E01368002B3CDA2D225B4284F8432037E021681A6811F0800F02D0111D196007E011F0400F02F10401196001D079
:40270000138800E01368227E5C496F2A14BF0A2208221BE078225A4984F845202268186812F0800F00F104051D6003D1550601D5038800E00368D00744BF42F020022260E6
:402740001BB9226822F0200222601022002084F8430001E049490A226568002DA56008DB206820F0040020602BB9002D7DD175460CE0002B79D07546B3FBF2F002FB103392
:40278000CB5C05F8013D03460028F5D1082A0BD12368DA0708D5236962689A42DEBF302305F8013C05F1FF35C5EB0E0323612EE008681A6810F0800F496903D0101D1860A5
:4027C000136808E010F0400F02F104001860136801D0198000E0196000232361754616E01A68111D1960156800216268284600F0A7FE08B1401B6060636804E004F14205CF
:4028000084F8422001232361002384F84330CDF800803B4603AA21463046FFF797FE013002D14FF0FF3026E023692A4639463046C0470130F5D023689B0710D5002504F193
:40284000190907E001234A4639463046C0470130E7D00135E368039A9B1A9D42F2DBE068039B9842B8BF184605E00B7804F1420584F842308AE705B0BDE8F083B8450000D6
:40288000C94500000EB400B54FF402719CB0ADF814106FF00041049107914FF6FF711DAB02900690084853F8042BADF81610006802A9019301F03AFA029B00221A701CB0E0
:4028C0005DF804EB03B070474481FF1F034613F8012B002AFBD1181A013870472DE9F74F03690C6980469C427FDC013C01F114074FEA840E00F1140606EB0E0357F824508E
:40290000019356F824300135B3FBF5F507EB0E09C5B34FF0000A3846B446D34650F8043B9AB205FB02A21B0C4FEA124A05FB03A392B2C2EB0B0BBCF800204FEA134A5A4450
:402940001FFA83FBDCF800308145CBEB134303EB224392B242EA03424FEA234B4CF8042BDCD256F80E306BB9019B043B9E421A4602D3C8F8104005E01268043B002AF8D1D9
:40298000013CF3E7404600F0F6FF00282BDB304601354FF0000E57F8042B036891B2C1EB0E0E120C99B27144C2EB134303EB214389B24FEA234EB94541EA034340F8043B3C
:4029C000E9D256F8242006EB840362B9043B9E421A4602D3C8F8104005E01268043B002AF8D1013CF3E7284600E0002003B0BDE8F08F0000000000002DE9F04F456A95B05D
:402A00008246219CCDE9022345B9102000F090FDCAF82400456085600560C560DAF82430196859B15A68012393404A608B60504600F0C9FDDAF8243000221A60039BA04AFC
:402A4000002BBDBF01232360039B0023BCBF23F000430393DDF80C80A8BF236028F000431B0D1B0593421DD142F20F73209A1360029B43B9934A944BC8F31300002814BF2E
:402A80001846104600E09048229B002B00F04685C37813B100F1080300E0C31C229A136000F03CBDDDE902450022002320462946FEF788FF074658B1209A01231360229B2E
:402AC000002B00F01E8581481860013800F026BD12AB019313AB009322462B46504600F0C5FFC8F30A56049056B1C5F3130343F07F51204641F44011A6F2FF3611971DE021
:402B0000139B129E1E4406F23243202B0ADD029A06F21240C3F1400322FA00F008FA03F3184304E0C3F12000029B03FA00F0FEF77DFE0123A1F1F871013E11930022644B75
:402B4000FEF736FD58A3D3E9002301F041FA58A3D3E90023FEF72EFD044630460D46FEF775FE55A3D3E9002301F032FA02460B4620462946FEF71EFD04460D4601F050FC66
:402B800000228346002320462946FEF725FF58B15846FEF75BFE02460B4620462946FEF711FF08B90BF1FF3BBBF1160F0DD8DDE90223484901EBCB01D1E90001FEF72AFFF7
:402BC00030B10BF1FF3B002300E00123109300E01090129B9E1B731E079343BFC3F10008002307934FF00008BBF1000F06DB079BCDF82CB05B440793002705E00023CBEB24
:402C00000808CBF100070B931E9B092B28D8052BC4BF043B1E931E9BC8BF0025A3F10203D8BF0125032B20D8DFE803F0060E0204012302E0012308E000230A931F9B002B27
:402C40001DDD9946059321E000230A931F9B0BEB030909F10103012B0593B8BF012315E0012500231E930A9501E001230A934FF0FF390022CDF8149012231F9206E04FF0CC
:402C800001094B46CDF81490CDF87C90DAF8244000226260042101F114029A421CD86268490001326260F6E761436F63A787D23FB3C8608B288AC63FFB799F501344D33FA5
:402CC0000000F07FDA450000E3450000B74500000000F83F504600006168504600F03EFCDAF8243020601B680693059B0E2B00F25B81002D00F05881DDE90234BBF1000FB6
:402D0000CDE90E3430DD9F4A0BF00F034FEA2B1502EBC303E80618CBCDE908340CD5DDE90E01994B05F00F05D3E9082301F07AFA0324CDE9020100E00224934E6DB1E907E5
:402D400008D5DDE90801D6E9002301F041F9CDE9080101346D100836F0E7DDE90823DDE9020101F05FFA20E0CBF1000505B3DDE90E01844B05F00F0203EBC203D3E900235B
:402D800001F026F9CDE902017F4E2D110023022455B1EA0705D5D6E9002301F019F9013401236D100836F3E71BB1CDE9020100E00224109BE3B1DDE902560022734B28461C
:402DC0003146FEF709FE98B1059B8BB1B9F1000F40F3E6800BF1FF330893314600226C4B284601F0F5F80134CDE902014E4602E0059ECDF820B02046FEF728FDDDE902237D
:402E000001F0E6F8634B0022FEF7D4FBA1F1507304460C931D46D6B9DDE9020100225E4BFEF7C6FB22460C9BCDE90201FEF7F2FD002840F03F820C99224601F10043DDE9E8
:402E40000201FEF7C9FD002840F02B82A8E00A9A4C4B711E002A49D003EBC103D3E9002300204E4901F0DEF922462B46FEF7A0FBCDE90C01069CDDE9020101F0D1FA05464C
:402E8000FEF7E4FC02460B46DDE90201FEF790FBDDE90C23303504F8015BCDE90201FEF79BFD002840F01D83DDE9022300203749FEF77EFBDDE90C23FEF78EFD002840F0A5
:402EC000D180069BE31AB3426ADADDE90C0100222F4B01F07DF80022CDE90C01DDE902012B4B01F075F8CDE90201C4E703EBC1012246D1E900012B4601F06AF8069BCDE901
:402F00000C011D469C19DDE9020101F089FA0646FEF79CFC02460B46DDE90201FEF748FB303605F8016BAC42CDE902014FF0000222D11A4BDDE90C01FEF73CFB02460B4615
:402F4000DDE90201FEF766FD002840F08B80DDE90C2300201149FEF72BFB02460B46DDE90201FEF739FDD8B114F8013C621E302B40F0B7821446F7E7054B01F029F8CDE950
:402F80000201C0E750460000284700000000F03F0000244000001C40000014400000E03FDDE90E34CDE90234139B002B7CDBBBF10E0F79DCAB4B03EBCB03D3E900671F9B2F
:402FC000002B14DA059B002B11DC40F06C810022A54B3046394600F0FBFFDDE90223FEF70FFD059D2E46002840F05F8165E1069CDDE9028932463B464046494601F012F975
:4030000001F00EFA0546FEF721FC32463B4600F0DFFF0B46024649464046FEF7C9FA05F1300E069B04F801EBC3EB040E059B73452DD102460B46FEF7BDFA80468946024618
:403040000B4630463946FEF7C7FC78B942464B4630463946FEF7B6FC002800F04482EB0704D440E2DDF820B000E01C4614F8012C631E392A07D1069A9A42F6D10699302292
:403080000BF1010B0A701A7801321A702BE20022764B00F09DFF0022002380468946FEF791FC0028A6D01EE20A9A002A2BD01E9A012A0ADC119A12B103F2334302E0129BCF
:4030C000C3F136033D46444613E0059B5D1EAF42BFBF0B9BEA1B9B180B93059BB6BF2F467D1B0025002BA7BF4446059BC3EB08040023079A01211A4450469844079200F062
:4031000001FB064602E03D4644460A9E5CB1079B002B08DDA342A8BF2346079AC3EB0808E41AD31A0793002F1DDD0A9BABB18DB131462A46504600F07FFB049A01460646D8
:40314000504600F0E8FA04990890504600F03BFA089B04937A1B06D000E03A460499504600F06AFB04900121504600F0CBFA0B9B05465BB31A460146504600F05DFB1E9B2C
:403180000546012B18DC029B83B9039BC3F3130373B9039B23F000473F0D3F054FB1079B08F1010801330793012702E0002700E0029F0B9B73B100E000272B6905EB8303AE
:4031C000186900F052FAC0F1200004E01E9B012BD9DD0B9F0120079B184410F01F0008D0C0F12003042B02DDC0F11C0002E006D018461C30079B8044034404440793B8F1B9
:40320000000F05DD42460499504600F063FB0490079B002B05DD29461A46504600F05AFB0546109B23B32946049800F0A4FB00281EDA00230A220499504600F0DBF90A9B36
:403240000BF1FF3B0490002B00F05F81314600230A22504600F0CEF9B9F1000F06463FDC3BE000BF504600000000144000002440059B002B2BDC1E9B022B28DDDDF81490F8
:40328000B9F1000F11D129464B460522504600F0B1F901460546049800F06DFB00280CDC03E0354600E000252E461F9B069C6FEA030B09E03546DDF820B0069B069A5C1C2A
:4032C000312313700BF1010B05960026F7E00A9BDDF8149023B9069CB2E01E9B022BCFDC002C05DD31462246504600F0F3FA06469FB17168504600F031F90446326906F137
:403300000C01023292000C30FEF738FE01222146504600F0DFFA059000E00596029B069F03F00103079329460498FFF7D7FA3146044600F13008049800F01DFB059A0290F6
:403340002946504600F033FBC36802463BB901460A90049800F00FFB0A9A034600E00123114650460A9300F02EF90A9B53B91E9A42B9079A32B9B8F1390F2AD0029B002B17
:403380001CDC1DE0029A002A04DB1BD11E9ACAB9079ABAB9002B13DD01220499504600F099FA2946049000F0E6FA002803DC07D118F0010F04D0B8F1390F0AD004F13108AD
:4033C0007C1C0CE0002B07F101040BDDB8F1390F03D139233B70013756E008F1010887F800806CE0069B2746E31A4B4504F8018C3BD000230A220499504600F0FBF8059B7E
:4034000004909E424FF00A024FF000033146504604D100F0EFF80646059084E700F0EAF8002306460A220599504600F0E3F8059079E700230A220499504600F0DBF804904C
:4034400029460498FFF74AFA069B00F1300804F8018BE31A4B45ECDB069B0596B9F1010FACBF4B4401331F46002601220499504600F030FA2946049000F07DFA002803DCD1
:4034800015D118F0010F12D03C4614F8013C621E392B09D1069B934204D10BF1010B3123069A02E01446F0E70133137007E03C4614F8013C621E302B01D11446F8E729468B
:4034C000504600F080F8059B6BB12EB19E4203D03146504600F077F80599504600F073F801E0DDF820B00499504600F06CF80023209A23700BF101031360229B1BB11C6090
:4035000001E008480AE0069808E0B9F1000F3FF7E2AE1E9B022B7FF7DEAEB1E615B0BDE8F08F00BFB6450000004870474881FF1F024B0146186800F041BB00BF4481FF1FC1
:4035400010B5C9B202449042034605D01C7801308C42F8D1184610BD002010BD70B5456A04460E463DB91020FFF7E2FF6062456085600560C560656AEB6843B1636ADB68F6
:4035800053F8260078B1026843F8262017E021220421204600F0B8FA636AE860DB68002BECD1002070BD012101FA06F56A1D9200204600F0A9FA0028F3D0466085600023CF
:4035C0000361C36070BD70B5446A06460D463CB91020FFF7ADFF7062446084600460C4603DB1736A6A68DB6853F82210296043F8225070BD2DE9F04106460C460D691F467C
:4036000001F1140E0023DEF80000013381B202FB0171000C0F0C02FB007089B201EB00419D424FEA10474EF8041BECDCD7B1A3689D4212DB616830460131FFF78FFF8046F5
:40364000226904F10C01023292000C30FEF796FC21463046FFF7B7FF444604EB850301355F6125612046BDE8F081030C1B0413B90004102300E0002310F07F4F04BF0002EB
:40368000083310F0704F04BF0001043310F0404F04BF80000233002803DB420003D5581C70471846704720207047036813F007020BD0D90722D49A074BBF5B089B0803607B
:4036C00003604CBF01200220704799B209B91B0C102213F0FF0F04BF1B0A0832190704BF1B090432990704BF9B080232D90702D45B0805D0013203601046704700207047EA
:403700002020704710B50C460121FFF727FF01224461026110BD2DE9F74F14460A69236988469A42BEBF0B46A0461C46D8F81070D4F81090D8F80830D8F8041007EB090627
:403740009E42C8BF0131FFF709FF00F114052B4605EB860C0022634502D243F8042BFAE704F1140208F1140102EB890301EB87070093009B0192934257D9B2F800B0BBF1F4
:40378000000F23D08946AE464FF0000859F8044BBEF800A0A3B20BFB03A34FEA144ADEF8004043444FEA14480BFB0A84F24604EB13449BB243EA04434F454FEA14484AF8FF
:4037C000043B01D9D646E1E7CEF80480019B0432B3F802A0BAF1000F21D02C4689462B684FF00008B9F800E0B4F802B09BB20AFB0EBEA346F04443EA08434BF8043B59F828
:40380000043BB4F804E01B0C0AFB03E34F4503EB18434FEA134801D95C46E3E763600435A7E75CF8043D13B9013E002EF9DC066103B0BDE8F08F00002DE9F843154612F0D7
:40384000030206460F4607D0214C013A002354F82220FFF7CFFE0746AD1036D0746A3CB91020FFF765FE7062446084600460C460D6F82480D8F808404CB940F27121304698
:40388000FFF740FF04460023C8F8080003604FF00008EB070AD5394622463046FFF73BFF814639463046FFF78EFE4F466D100CD0206808B10446ECE7224621463046FFF7D1
:4038C0002AFF2060C0F80080F4E73846BDE8F883184700002DE9F0470C460746914626694FEA621A56444968A368751CAB4202DA01315B00FAE73846FFF730FE002380465F
:403900001A4600F11401534503DA41F823200133F9E72AEAEA73206901EB830319F01F0904F1140101EB800E14D0C9F1200C002208689A4600FA09F0024343F8042B51F8D4
:40394000042B8E4522FA0CF2F2D8CAF8042042B1B51C06E0043B51F8042B8E4543F8042FF9D8013D3846C8F810502146FFF72BFE4046BDE8F08703690A6910B59B1A11D1C9
:4039800092001430143183180A4453F8044D52F8041D8C4202D007D3012010BD9842F4D3002010BD184610BD4FF0FF3010BD2DE9F8430C460746114620461546FFF7DBFFC8
:4039C000061E08D131463846FFF7C8FD012303614661BDE8F883BCBF23462C4638466168BABF1D4601260026FFF7B8FD2B69C660266905F1140904F1140101EB860709EB87
:403A0000830800F114054FF0000C51F8042B59F8044B93B29C44A3B2240CC3EB0C03C4EB124202EB23429BB24FEA224CC84543EA02428E4645F8042BE7D8BE450ED25EF828
:403A4000041B8AB26244131403EB114392B242EA03424FEA234C45F8042BEEE755F8043D0BB9013EFAE70661BDE8F8832DE9F3411C4601219046089E099DFFF76FFDC4F33C
:403A80001302C4F30A5407460CB142F480120192B8F1000F19D002A840F8088DFFF705FE009B48B1019AC0F1200102FA01F10B43C2407B61019200E07B61019B002B14BF62
:403AC00002210121BB61396107E001A8FFF7EDFD019B01217B613961203034B1A4F2334404443460C0F1350009E0A0F2324007EB810330601869FFF7B8FDC0EB4110286080
:403B0000384602B0BDE8F08138B502FB01F4214600F054F8054618B122460021FEF739FA284638BD38B50546002944D051F8043C0C1F002BB8BFE41800F017FA1E4A1368EA
:403B4000114613B96360146030E0A3420DD92268A018834201BF18685B681218226063600C6023E0A24203D813465A68002AF9D118681918A1420BD12168014458188242E8
:403B8000196013D110685268014419605A600DE002D90C232B6009E021686018824201BF106852680918216062605C602846BDE8384000F0DBB938BDC881FF1F70B5CD1C43
:403BC00025F0030508350C2D38BF0C25002D064601DBA94202D90C23336046E000F0C5F9234B1C681A462146A1B10B685B1B0ED40B2B03D90B60CC18CD501EE08C420BBF6F
:403C000063684B681360636018BF0C4615E00C464968E9E7174C23681BB9304600F07AF920602946304600F075F9431C18D0C41C24F00304A0420DD12560304600F096F905
:403C400004F10B00231D20F00700C31A0ED05A42E25070BD211A304600F05CF90130EBD10C233360304600F081F9002070BD00BFC881FF1FC481FF1F2DE9F0478E688246D1
:403C80009E420C46914698463ED88A8912F4906F3AD02568096902236F1A656905EB450595FBF3F57B1C43449D4238BF1D4653050FD52946FFF782FF064698B13A462169A0
:403CC000FEF75CF9A38923F4906343F08003A38113E02A4600F04BF9064670B921695046FFF720FF0C23CAF80030A3894FF0FF3043F04003A381BDE8F08726613E44266029
:403D000046466561ED1BA560464528BF464649463246206800F00EF9A36800209B1BA36023681E442660BDE8F08700002DE9F04F9DB003938B8980461C060D4616460DD568
:403D40000B695BB94021FFF739FF2860286118B90C23C8F80030CDE040236B610023099320238DF82930DFF89CB130238DF82A3037463C4614F8013B1BB9B7EB060910D06D
:403D800003E0252BF9D02746F3E74B46324629464046FFF771FF013000F0A780099B4B4409933B78002B00F0A08000234FF0FF3204930793059206938DF853301A93012687
:403DC000052221784E48FFF7BBFB671C049B38B14B4A3C46801A06FA00F018430490EFE7D90644BF20228DF853201A0744BF2B228DF8532022782A2A03D0079A00210A201E
:403E00000BE0039A111D12680391002A10DA524243F00200079204900BE027463B780134303B092B03D800FB02320121F5E701B107923B782E2B1ED17B782A2B0AD1039BC6
:403E400002371A1D1B680392002BB8BF4FF0FF33059310E0002319460593781C0A2407463A780130303A092A03D804FB01210123F5E703B10591032239782248FFF760FB9F
:403E800040B14023CBEB000003FA00F0049B013718430490397806221B487E1C8DF82810FFF74EFB88B1194B33B9039B073323F007030833039314E003AB00932A46144B20
:403EC00004A94046FEF7FEF807E003AB00932A460F4B04A94046FEF7AFFBB0F1FF3F824603D0099B5344099342E7AB895B0601D4099801E04FF0FF301DB0BDE8F08F00BF5C
:403F000050470000564700005A470000C5200000793C000038B5064C0023054608462360FCF7CAFB431C02D1236803B12B6038BDE881FF1F884210B501EB020301D8421EAB
:403F40000BE09842FBD28118D21AD34204D013F8014D01F8014DF8E710BD994204D011F8014B02F8014FF8E710BD70477047F8B5074615460E4621B91146BDE8F840FFF7E0
:403F80001DBE1AB9FFF7CEFD2846F8BD00F015F885420ED929463846FFF710FE044650B131462A46FDF7EAFF31463846FFF7BAFD01E03046F8BD2046F8BD51F8040C00287A
:403FC000BEBF091851F8043CC01804387047000070B54FF0FF0C4CF4E06C1CEA11541DBF1CEA135594EA0C0F95EA0C0F00F0DEF82C4481EA030621EA4C5123EA4C5350EAB4
:40400000013518BF52EA033541F4801143F4801338D0A0FB02CE4FF00005E1FB02E506F00042E0FB03E54FF00006E1FB03569CF0000F18BF4EF0010EA4F1FF04B6F5007FFF
:4040400064F5407404D25FEA4E0E6D4146EB060642EAC62141EA55514FEAC52040EA5E504FEACE2EB4F1FD0C88BFBCF5E06F1ED8BEF1004F08BF5FEA500E50F1000041EBFA
:40408000045170BD06F0004646EA010140EA020081EA0301B4EB5C04C2BFD4EB0C0541EA045170BD41F480114FF0000E013C00F3AB8014F1360FDEBF002001F0004170BDA4
:4040C000C4F10004203C35DA0C341BDC04F11404C4F1200500FA05F320FA04F001FA05F240EA020001F0004221F0004110EBD37021FA04F642EB06015EEA430E08BF20EAEA
:40410000D37070BDC4F10C04C4F1200500FA04F320FA05F001FA04F240EA020001F0004110EBD37041F100015EEA430E08BF20EAD37070BDC4F1200500FA05F24EEA020EC3
:4041400020FA04F301FA05F243EA020321FA04F001F0004121FA04F220EA020000EBD3705EEA430E08BF20EAD37070BD94F0000F0FD101F00046400041EB010111F4801FE8
:4041800008BF013CF7D041EA060195F0000F18BF704703F00046520043EB030313F4801F08BF013DF7D043EA0603704794EA0C0F0CEA135518BF95EA0C0F0CD050EA4106FD
:4041C00018BF52EA4306D1D181EA030101F000414FF0000070BD50EA410606BF1046194652EA430619D094EA0C0F02D150EA013613D195EA0C0F05D152EA03361CBF104674
:4042000019460AD181EA030101F0004141F0FE4141F470014FF0000070BD41F0FE4141F4780170BD70B54FF0FF0C4CF4E06C1CEA11541DBF1CEA135594EA0C0F95EA0C0FF3
:4042400000F0A7F8A4EB050481EA030E52EA03354FEA013100F088804FEA03334FF0805545EA131343EA12634FEA022245EA111545EA10654FEA00260EF000419D4208BFB0
:40428000964244F1FD0404F5407402D25B084FEA3202B61A65EB03055B084FEA32024FF480104FF4002CB6EB020E75EB030E22BFB61A754640EA0C005B084FEA3202B6EB30
:4042C000020E75EB030E22BFB61A754640EA5C005B084FEA3202B6EB020E75EB030E22BFB61A754640EA9C005B084FEA3202B6EB020E75EB030E22BFB61A754640EADC00C3
:4043000055EA060E18D04FEA051545EA16754FEA06164FEAC30343EA52734FEAC2025FEA1C1CC0D111F4801F0BD141EA00014FF000004FF0004CB6E711F4801F04BF014322
:404340000020B4F1FD0C88BFBCF5E06F3FF6AFAEB5EB030C04BFB6EB020C5FEA500C50F1000041EB045170BD0EF0004E4EEA113114EB5C04C2BFD4EB0C0541EA045170BDBE
:4043800041F480114FF0000E013C90E645EA060E8DE60CEA135594EA0C0F08BF95EA0C0F3FF43BAF94EA0C0F0AD150EA01347FF434AF95EA0C0F7FF425AF104619462CE72A
:4043C00095EA0C0F06D152EA03353FF4FDAE1046194622E750EA410618BF52EA43067FF4C5AE50EA41047FF40DAF52EA43057FF4EBAE12E74FEA410C7FEA6C5C02D150EA7E
:40440000013C0AD14FEA430C7FEA6C5C02D152EA033C02D14FF0000070474FF0010070474FEA410212F5001215D211D56FF47873B3EB625212D94FEAC12343F0004343EAF0
:40444000505311F0004F23FA02F018BF404270474FF00000704750EA013005D111F0004008BF6FF0004070474FF00000704700BF0000000000000000434F4D20506F72743C
:40448000204F70656E0D0A0054656D70204C4D33353A20252E316620430D0A0054656D7020544D5033363A20252E316620430D0A0000000052656164207472696D706F7445
:4044C00020303A20252E32660D0A000052656164207472696D706F7420333A20252E32660D0A000049324320736C6176652077726974653A203078253032780D0A0000005A
:4045000049324320736C6176652072656164282564293A20307825303278203078253032780D0A002D510040005B00402D510040005B00402D510040005B00402D51004044
:40454000005B00400808100120024004035B00402443004040000000005100401000305100404000F05100401000000001400010001401400006801A0140800100400140D8
:40458000000A004C01400002005001402000000060520040A80700480600001A0140B007004880004300494E4600696E66004E414E006E616E0030003031323334353637A5
:4045C0003839414243444546003031323334353637383961626364656600496E66696E697479004E614E00000000000000000000000000000000000000000000000000000C
:40460000000000000000000000000000000000000000000000000000000000000000000000000000000000000000000000000000000000000000000000000000000000007A
:404640000000000000000000504F534958002E00000000000000F03F000000000000244000000000000059400000000000408F40000000000088C34000000000006AF84011
:404680000000000080842E4100000000D01263410000000084D797410000000065CDCD41000000205FA00242000000E876483742000000A2941A6D42000040E59C30A24238
:4046C0000000901EC4BCD64200003426F56B0C430080E03779C3414300A0D8855734764300C84E676DC1AB43003D9160E458E143408CB5781DAF154450EFE2D6E41A4B440A
:4047000092D54D06CFF08044F64AE1C7022DB544B49DD9794378EA4405000000190000007D000000000000000080E03779C34143176E05B5B5B89346F5F93FE9034F384D3C
:40474000321D30F94877825A3CBF737FDD4F1575232D302B2000686C4C0065666745464700000000F8B500BFF8BC08BC9E4670474D00000035070000F8B500BFF8BC08BCA8
:404780009E4670472900000098470000C880FF1FB80000007000000000000000F081FF1F0000E02EC05D00001800000000366E0101FFFF0000000000E845000008460000D7
:4047C0002846000000000000000000000000000000000000A44500000000000000000000000000000000000000000000000000000000000000000000000000000000000062
:404800000000000000000000000000000000000000000000E480FF1F4E460000554700005547000055470000554700005547000055470000554700005547000055470000E6
:40484000FFFFFFFFFFFFFFFFFFFFFFFFFFFF000000000000000000000000000000000000000000000000000000000000000000000000000000000000000000000000000046
:4048800000000000000000000000000000000000000000000000000000000000000000000000000000000000000000000000000000000000000000000000000000000000F8
:4048C00000000000000000000000000000000000000000000000000000000000000000000000000000000000000000000000000000000000000000000000000000000000B8
:404900000000000000000000000000000000000000000000000000000000000000000000000000000000000000000000000000000000000000000000000000000000000077
:404940000000000000000000000000000000000000000000000000000000000000000000000000000000000000000000000000000000000000000000000000000000000037
:020000040003F7
:0200000480007A
:400000000264004003650040590201402E0301405D040140490501404D0601405007014004090140080B0140040C0140010D01400E15014047160140501701404018014082
:4000400039190140141A01404A1B014003400140044101400642014005430140024401400145014004460140014701400248014008490140014C01400A4D014006500140C0
:400080000151014026048607870F89728B3803050405060207050A080C030E101006110412011301140416031A201B021C031F052204250127042C042D08310C320F330490
:4000C00034103501362037023A083F10580459045C115F018310870189208C1C8E228F08910F920395029704983099309A0C9C099E10A010A102A304A414A530A82CA90434
:40010000AA11AB02AC40AD06AF09B01FB130B30FB660B880B902BF01C004C604C9FFCA07CBFFCC40CD20CEF0CF05D008D804D904DA04DC12DD02DF01E040E1A8E240E3205F
:400140000180055409200A420E280F82102011101241168017411A421C081E291F08210522042404260227512B592F1231243202354036803712382039083A813B013C083F
:400180003E0141014B0152409740B340C0E1C2FBC49FCA5FCCB7CECFD001EA20020803050640090A0B040C2C0D030E130F04121013081640181119031A261B0C1E2C22137D
:4001C0002503270428112A0E3010320F342A350F36403A283B203E4140244106450B46EC480D49FF4AFF4BFF4EF04F44500C580459045A045C225D025F0166C06A406B024B
:4002000081208313873388C08A148C038D108F23901492E89340943C95029709980299019A4C9B069CB09D019E039F04A04CA201A510A723A8E8AA14ACFFB307B570B6FF8D
:40024000B708B880BB08BF10D21DD804D904DB04DC11DD10DF010180025005400608080809200A020B800C080E0A0F801110130D1444174018201A811B101D402120272A26
:400280002B102E083120320136083761382039403B813C8A3F80412248204B104D104F3052205340650466086D096F02760282418A019004924A93019420951097609A40A8
:4002C0009B419D949F02A001A216A420A520A680A753B005B210C0CDC2FFC4DACA42CCF5CEDDD005D204E0040103050107020D020E010F011B031D03340137033F404043F4
:40030000440647DB483049FF4A7F4BFF4C424DA04E70500C56025724580459045A045B045C015D115E085F0161096240630964306509800C83018503860388018B038C03CE
:400340008D038E1090059103920A9502960F98039A1C9B039C0C9F04A009A103A206A401A503A903AA01AC01AD03B507B61FBB20BE40D420D604D804D904DB04DC10DD1075
:40038000DF0100080190028203200702080409210A010B880C040E200F1010321120120113011B801F1021202701281029802A012B08320533A03440369039013B983C80CA
:4003C0003E093F02450847014E0854085510570159025A405B206004634067046C226D106F087E02900491419288930497609A029B229C4C9D109E18A001A104A232A44CD1
:40040000A689A701A810A982AB01AD40C08FC20FC40FCA0FCC3FCEDFD0C0D220D60DD825DE10934099809A40A30181808A409340A301B341B440E480E8A038023E01580440
:400440005F011C40828087048C0897089C089E80AC04AD01AF10B002B230B584EC80EE0200660208046308040E0110041677184619041A391C032025225224042A042B023C
:400480002E142F01321F330135043660370238803E043F10580459045C115F018006820983018507860788058B078C068D058E088F029003910592049402950499059A012F
:4004C0009C019D029E069F05A001A102A405A505A801AB08AC05AD05B10FB40FBB02BE10D401D804D904DB04DC10DD20DF01000A0190020603400506060609050A0A0B01B3
:400500000C120E200F021022112113281401172A19101E021F0820802201234025802688270429802A052B082E802F043022320433403502362239013A083B6058025AA074
:400540005B04780179028108841086038A088B028D458E1191519288960297019A029C089D109E18A023A114A232A301A444A509A689A920AA40AD02AE04C0FFC2FFC4FF17
:40058000CA3FCC2FCE0FD60FE002E201E402010C0322040108010B010D01100111021334170818011B0E2502271C293832013306350137383E043F14580459045C105F01AE
:4005C0008407857C8801897C8A068D528E018F289006910B9201931494069703980799039C029F03A004A303A408A503A808A925AB48AC08B008B11CB360B407B703D60269
:40060000D711D804D904DB04DC22DD20DF01004401200404053408900A400B100C100E400F881082111418401A841E1021082201230225802620272128102A202B402C081B
:400640002F10311432413628370139943F625A106802691470847208731883208408871089808DC88E08934099809A40A301C067C25FC40FCA67CCEFCEBED604E230E4406E
:40068000870189018F0192019D02A601A901B201B302B701B980BE04BF04D418D804D904DB04DC20DD20DF0100440120082009080A420E801082121413081508180119211F
:4006C0001A581B041F0420042140221025042640282029012AA02D20308032143580380839803A143C043E50406142944920500151045F026640670888028A208C018D0469
:40070000904892069404964099809A409B0A9D209E20A080A108A704AE20B080B20CB710C007C21FC42FCA2FCC1ECE7ED00FD204D680D830E240E810EC80EE20321034806A
:40074000CC308D408E109620B0805280571083109540D460E68011409540AE80C440EE107C20DE019C204640B420D001E8029E402708C8201280170483048680B308C43071
:40078000E080E4109E401080771088808F10B240C408DE04E402E601EC01000608060A0610061A061C06000E818300004300000000000000063061006110060000006102AD
:4007C00066000100400E0830673200086020100004320004023E0000060200012000080C07000000663E180100002A200000400064030200010000CE30FFFFFF62A0F0413E
:400800000C0000000000000004040400220200010000000000004002001030100010101200000000000000000000000000000000830040838000830000000000000B0B0058
:4008400000000000000000000000780007001801000000000000000000000000000000000000000000000000000000000000000000000000000000000000000000000000E0
:400880000000000000000000000000000000000000000000000000000000000000000000000000000000000000000000000000000000000000000000000000000000000038
:4008C00000000000000000000000000000000000000000000000000000000000000000000000000000000000000000000000000000000000000000000000000000000000F8
:4009000000000000000000000000000000000000000000000000000000000000000000000000000000000000000000000000000000000000000000000000000000000000B7
:400940000000000000000000000000000000000000000000000000000000000000000000000000000000000000000000000000000000000000000000000000000000000077
:0200000490006A
:0400000000004005B7
:0200000490105A
:04000000BC90ACAF55
:0200000490303A
:02000000557633
:0200000490402A
:4000000000000000000000000000000000000000000000000000000000000000000000000000000000000000000000000000000000000000000000000000000000000000C0
:400040000000000000000000000000000000000000000000000000000000000000000000000000000000000000000000000000000000000000000000000000000000000080
:400080000000000000000000000000000000000000000000000000000000000000000000000000000000000000000000000000000000000000000000000000000000000040
:4000C0000000000000000000000000000000000000000000000000000000000000000000000000000000000000000000000000000000000000000000000000000000000000
:0200000490501A
:0C00000000012E16106900012E3365DF90
:00000001FF