:400000000080002011000000DD030000DD03000008B5044B1A6803F53F5302331A6000F0E5F900BFFA46004010B5054C237833B9044B13B10448AFF300800123237010BDD9
:400040004881FF1F00000000080F0000084B10B51BB108490848AFF300800848036803B910BD074B002BFBD0BDE81040184700BF000000004C81FF1F080F0000C880FF1FD4
:400080000000000008B500F063FD00F089FD08BD08B562B600F00CFE00F03EFD00F09AFD044800F0C7FD044800F01CFE00F048FDFEE700BF850000000C0F0000FEE700BF04
:4000C000F0B40022174611E050F82760F3B226F0FF0608E001EB420511F812406D78A5550132013BDBB2002BF4D10137202FEBD9F0BC7047064B1B78DBB203F00701054AB3
:4001000011701B09013213704422034B1A707047CF0100496E5800407658004008B50A46002100F0E8FE08BD08B500F0D9FE08BD70B50024304B1C80502202331A70032676
:4001400002331E8018232D4A13701925023215800232137004222A492A48FFF7E5FF0222294B1A7008224FF040231A7003F500731E70264B1B78DBB225490B70254B1A80DF
:4001800041F25122023B1A800CE0234B1B7803F0010343EA440404F003044FF4F07000F063FE013D0DB1032CEFD115B90320FFF785FF1A4B4FF480721A8007221A7000221B
:4001C00017490A704820023108701A700222033B1A7004220A331A70124A137843F007031370013A137843F001031370013A137843F08003137070BD804000408640004056
:4002000084080048004100400043004008010049A146004022420040254200400440004006400040A2430040032818D810B44000C0B20B4B53F820101A1892F820400A78F3
:4002400022EA04020A700130C0B253F82020184490F82010137823EA0103137010BC70471C0F0000012809D8054B03EB8002926A184490F8301013780B431370704700BF27
:400280001C0F000001280AD8054B03EB8002926A184490F83010137823EA0103137070471C0F000038B572B6394A137843F00403137000240BE0374863001A19510001448D
:4002C0000A46098F506BFFF729FF0134E4B2072CF1D900240CE02F48A20011194B000344B3F86C20996E586EFFF71EFF0134E4B2012CF0D928494FF09040FFF7E1FE0A2237
:40030000264B1A70264903F52943D533196025490B7843F002030B7010310B7843F002030B70214C237843F040032370A1F5863151390B7843F010030B701C491C48FFF768
:40034000F3FE08221B491C48FFF7EEFE08221B491B48FFF7E9FE08221A491B48FFF7E4FE1A4A137843F008031370194D61232B70FFF7DEFE81232B700122164B1A70FFF7D8
:40038000B9FE0E2221461448FFF7CEFE38BD00BFE84600401C0F00008400004883580040040400C403500140A043004060080048C05100406C080048F25100407408004816
:4003C000125100407C08004822510040224300400048004004000840B043004008B500F053FD03680C2B00D1FEE7FEE708B5104E104D16E029686B68AC68002204E051F8C0
:40040000040B43F8040B0432A242F8D1E868002203E0002143F8041B04328242F9D11035013E002EE6D100F035FDFFF731FEFEE7010000001C10000008B5104A104B1A603E
:40044000104A136843F40073136000230AE0032B03D80D4A52F8231000E00C490C4A42F8231001332F2BF2D90A4B1A780A4B1A70074A0A4B1A60FFF715FF08BD0004FA0597
:400480000CED00E014ED00E000000000DD0300000080FF1FBC760040C080FF1F08ED00E001BE704708B5034B1B7A00FB03F000F0DBFC08BDCC80FF1F70B504460E46074B50
:4004C0001D681F2802D90020FFF7EAFF04F01F04103455F8240045F8246070BD08ED00E038B504460D46072902D90020FFF7D8FF1F2C02D90020FFF7D3FF04F01F0000F133
:40050000604000F564406D01EDB2057038BD00BF38B59DF81040651EEDB2032D51D8013809282ED8DFE800F0052D2D052D2D0F192D230F2B03D92548007840B222E0244847
:40054000007840B21EE00F2B03D92248007840B218E02148007840B214E00F2B03D91F48007840B20EE01E48007840B20AE00F2B03D91C48007840B204E01B48007840B246
:4005800000E0002001EB401101FB02F2D20B91B20D2B0BD8C3F10E0192B20A4191B2621E124800EB82020133937005E0631E0F4A02EB83030F229A70013C0C4B23F824106E
:4005C00038BD0020FFF76CFF38BD00BF180100491C010049190100491D0100491A0100491E0100491B0100491F0100496481FF1FF8B5074600F040FC06460D4D2B7843F000
:4006000003032B700B4C237843F0030323700A4B1F700320FFF746FF2B7803F0FC032B70237803F0FC032370304600F029FCF8BDF8460040F9460040925800402DE9F0411B
:4006400004460022BB4B1A7401285CD13422BA4B1A70042202331A70062201331A70002501331D7001331D703F2201331A7002331D7001331D7001331D7001260A331E7078
:40068000502203F527631A70272201331A702C2201331A7001331D70552203331A705A2201331A704FF00508013383F80080022702331F70122201331A70282201331A7015
:4006C000EB2201331A704420FFF792FF58229B4B1A7001331D70053383F8008001331F7001331D7001331D70284600F01DFB4FF47A42934B1A603146304600F039FB914969
:400700002846FFF7D9FE022C59D138228A4B1A70042202331A70062201331A70002501331D7001331D703F2201331A7002331D7001331D7001331D7001270A331F70502232
:4007400003F527631A70272201331A702C2201331A7001331D70552203331A705A2201331A70052601331E7002331F70112201331A70192201331A70972201331A704420B2
:40078000FFF736FF58226D4B1A7001331D7005331E70022201331A7001331D7001331D70284600F0C1FA4FF47A42654B1A603946304600F0DDFA64492846FFF77DFE032CAE
:4007C00059D138225C4B1A70042202331A70062201331A70002501331D7001331D703F2201331A7002331D7001331D7001331D7001270A331F70502203F527631A702722B4
:4008000001331A702C2201331A7001331D70552203331A705A2201331A70052601331E7002331F70112201331A70192201331A70972201331A704420FFF7DAFE58223F4B74
:400840001A7001331D7005331E70022201331A7001331D7001331D70284600F065FA4FF47A42374B1A603946304600F081FA37492846FFF721FE042C59D138222E4B1A7031
:40088000042202331A70062201331A70002401331C7001331C703F2201331A7002331C7001331C7001331C7001260A331E70502203F527631A70272201331A702C22013370
:4008C0001A7001331C70552203331A705A2201331A70052501331D7002331E70112201331A70192201331A70972201331A704420FFF77EFE5822114B1A7001331C70053300
:400900001D70022201331A7001331C7001331C70204600F009FA4FF47A42094B1A603146284600F025FA0A492046FFF7C5FDBDE8F08100BF6481FF1F004E004094580040AB
:400940008081FF1FC50B0000C90B0000CD0B0000D10B00002DE9F04182B0384D4FF0010885F80080364E00247474102000F0EEF907212046FFF7B4FD0427324B1F70013386
:400980001C7007331C70304A137843F0180313702E4B1C7003F2F5231C7001331C700A22A3F209331A7001331C7002331C705B2205331A705E2201331A7004331C70142233
:4009C000A3F68C231A70CDF8008010234FF4004249F2DA012046FFF79BFD0223009310234FF4004249F2DA012046FFF791FD0323009310234FF4004249F2DA012046FFF7CB
:400A000087FD009710234FF4004249F2DA012046FFF77EFD2B78013B06EB83039A780C4B1A702B78013B36F823200A4B1A802878FFF704FE02B0BDE8F08100BFDC80FF1FD5
:400A40006481FF1F96580040075B0040935800400E4E00400C4E004070B500F00DFA0646244B1B78244B1A7842F001021A701A7842F010021A7010331A7842F001021A7024
:400A80001A7842F010021A701C4D2B7843F002032B701B4C237843F002032370194A137843F0030313700320FFF7FCFC2B7803F0FD032B70237803F0FD032370124A137836
:400AC00043F0060313707A22104B1A70104A137843F0010313701032137843F00103137001230C4A1360A2F5C0721360304600F0C7F970BDDC80FF1FAA430040F8460040EF
:400B0000F9460040915800407758004082580040A243004080E200E008B5084B9B7C4BB9064BDB7C13F0FF0F01D1FFF713FF0122024B9A74FFF790FF08BD00BF6481FF1F35
:400B4000024A137843F0010313707047004E00400E4B1B7803F00303012B03D80C4B188880B209E00A4A12780A49087842EA0020032B01D1084B1B78084B1B7C13F0FF0FC3
:400B800002D00022054B5A7400B27047144E0040104E0040114E0040124E00406481FF1F064B5B69C01A4FF47A7303FB00F0044B1B6890FBF3F000B2704700BF6481FF1FC0
:400BC0008081FF1F704700BF704700BF704700BF704700BF10B5002404E02046FFF724FB0134E4B2032CF8D9FF22014B1A7010BDDD80FF1F024B1B68C3F8B400704700BFF7
:400C000008ED00E04001C0B2014B1870704700BF1DE400E04FF00052014B1A60704700BF00E100E04FF00052014B1A60704700BF80E100E010B50446FFF7F4FF2046FFF711
:400C4000D9FF0720FFF7DEFFFFF7E4FF10BD00BF7222084B1A70202201331A700622A3F5B3731A70472210331A70002254331A70704700BF8865004010B500F0FDF804465C
:400C80000A4A137843F0200313700132137843F010031370A2F58172137843F01003137000F0D2F8204600F0EBF810BD9865004008B5054B1B7823B9FFF7CAFF0122024B6F
:400CC0001A70FFF7D9FF08BD7C81FF1F034B1B7813F0040FFAD1024B18707047676400404764004038B5074B1B782BB938BDFFF7EDFF0134A4B201E005460024285D002863
:400D0000F5D138BD7C81FF1F10B5002404E02046FFF7B8FA0134E4B2012CF8D9FF22014B1A7010BDDE80FF1F10B50446FFF7ECFF2046FFF797FA014B1C7010BDDE80FF1FFB
:400D4000014B188880B2704780400040034B1A7800F0F80010431870704700BF82400040024B187800F00700704700BF8240004070B505460E46FFF7F3FF0446FFF7E0FF6C
:400D8000A84256D02B4B1B7803F0010294B900B185B938B9284B1D80284A137803F0BF03137070BD254A137843F040031370224B1D8070BD22B3002321490B7001240F3119
:400DC0000C7004310B700C390B7803F07F030B701A4B1B7813F0080F00D08DB9194B18800721013B1970164B1B7813F0010FFAD110490B7803F0FE030B700021104B1970DC
:400E00000C4B1B7813F0010F0DD00E4B1D800EB1032200E001220A4B1A70094B1B7813F0010FFAD170BD044B1D8002490B7813430B7070BDA243004080400040824000404B
:400E40000140004002400040054A137843F0040313701032137843F004031370704700BFA2430040000000000230800803D000BF01380046FCD17047EFF3108072B6704713
:400E800080F31088704700BF014B1868704700BF4081FF1F0E4B70B51E460E4C0025E41AA410A54204D056F8253098470135F8E700F0A2F8084B094C1E46E41AA4100025BE
:400EC000A54204D056F8253098470135F8E770BD0410000004100000041000000C10000010B5431E0A44914204D011F8014B03F8014FF8E710BD03460244934202D003F883
:400F0000011BFAE77047000000000000434F4D20506F7274204F70656E0D0A002D510040005B00402D510040005B00402D510040005B00402D510040005B0040080810010B
:400F400020024004035B0040244300404000000000510040100030510040400000000140001000140140000480180140800300400140000A004C0140000200500140200013
:400F800060520040D8070048060000180140E007004880004300000000000000000000000000000000000000000000000000000000000000000000000000000000000000C7
:400FC0000000000000000000000000000000000000000000000000000000000000000000000000000000000000000000000000000000000000000000F8B500BFF8BC08BC0D
:401000009E4670474D00000039040000F8B500BFF8BC08BC9E4670472900000030100000C880FF1F800000004000000000000000000000000000E02EC05D0000180000003A
:4010400000366E0101FFFF0000000000980F0000B80F0000D80F000000000000000000000000000000000000940F00000000000000000000000000000000000000000000D4
:4010800000000000000000000000000000000000000000000000000000000000000000000000000000000000E080FF1F0000000000000000000000000000000000000000B2
:4010C00000000000000000000000000000000000000000000000000000000000000000000000000000000000000000000000000000000000000000000000000000000000F0
:4011000000000000000000000000000000000000000000000000000000000000000000000000000000000000000000000000000000000000000000000000000000000000AF
:40114000000000000000000000000000000000000000000000000000000000000000000000000000000000000000000000000000000000000000000000000000000000006F
:40118000000000000000000000000000000000000000000000000000000000000000000000000000000000000000000000000000000000000000000000000000000000002F
:020000040003F7
:0200000480007A
:40000000015200400364004002650040550201403A030140510401404B0501404E0601404E07014002090140040B0140030D01400D1501404D1601404D1701401218014073
:4000400040190140491A0140551B014003400140024101400442014003430140024401400245014002460140014701400B4801400F490140024C0140074D01400650014072
:40008000015101407C0225048207870F887289380301050509050A080C020D040E04110517071B081D051E061F022004210522022502260129072C022D022E042F0530012F
:4000C000310F3206340E39083B023E143F0456025728580459045B045C115D105E085F01810F86088C048D068F0993019406971098019D029F04A006A602A708A902AB04C4
:40010000AD04AF02B10FB201B310B408B606B880BE44C001C540C9FFCA07CBFFCC40CD20CEF0CF05D008D804D904DA04DC11DD02DF01E040E1A8E240E32000080201044089
:4001400005600A220B090D4010A0150216E0174019241B901D081F11208022052440260227202A402B182D012E812F28314032093408354036103701388039013C803D22D9
:400180003E0443804A4050205110640267226DA06E146F077D0183208820C0C5C286C4BCCAFECCFBCEF9D008D840DE80E001040405010608070208080A040B010C021201E0
:4001C00017011A0C27012A0C2E0C2F0133023408350136073E10580459045C115F01810382038310850189018D018E03900191499206932697039B6F9C019D259E049F4A2C
:40020000A16CA203A701A903AA03AB1CAC02AD6CAE09B007B11FB408B560BA02BF11C023C401C5DBC803C9FFCA7FCBFFCC42CDA0CE70D00CD420D604D804D904DA04DB041B
:40024000DC01DD11DF01E109E240E309E430E509001403010440074008200A880E4110011208140A150219101A011C041D021E4020182510278028212C012D012E082F08C7
:400280003208340835203602374038143D803E15440245184C404D014F0656085F6164406510844090409120921C93019480958296219708980299049B049C089E219F403F
:4002C000A040A148A202A312A484A501A618A720AB48B240C097C29AC4D3CAFACCF2CEF6D070D6B0D8A0000301010403050109050A030E010F0110021101133614031717D8
:40030000180319051D031E031F64200321762308240325022710280329162B492D052E0431703207350F3A083F10580459045C115F018103870889068B0195209D059F02B9
:40034000A104A704A904AB03AD03AF30B10FB310B720BB02BF40C032C104C5ECC60BC70EC817C9FFCAFFCBFFCEF0CF44D00CD401D904DA04DB04DC10DD22DF01E6C0EA402E
:40038000EB020204030805200612074008100A040D400E040F501440160417841F082149228824042740284129202A402B102C402D202E012F2231083340341836023740CD
:4003C000380439013A103C803D023E1A3F40401041104240490950405304582059458521912192159304958296A0970899049A089B849C099E219F41A040A202A313A48077
:40040000A501A618A728A902AB20AD21B348C0F0C2F0C4F0CAFFCCFACEF7D007D60F9A80A2209A80A220B220E8208A80E001E420862088819C019E20A480A808AA41AD022B
:40044000B102B580E401E802EA0500C00103021404B00504060308E809040A140C140EE80F0110031146133914021525164C1752183C1B771CFF1F14204C216622012308AF
:40048000270429632D0430FF3360351F380239083F10521D580459045B045C115D105F01840385108614881389108A0C8B0C8C0A8D148E14920893039A209D0C9F11A013CD
:4004C000A11CA204A302A615AA20AD09AF10B020B11FB20FB610BA08BB80BE41D804D904DC22DF010010010802010520075208210D080E810F041088121016401810194233
:400500001A201E8021822610271028012A012C042E092F023080310235243682370238983C803E143F026D026F217440810483508404865088208A408C048E1090809215DB
:400540009304941096A099289A089B409D409E619F01A108A282A303A480A501A610A720A880AA40AC08AE92AF12B020B108C0F7C2FAC41ECAF9CCF9CEFEE22AEC108021F4
:40058000824A9044922A9C029E15A467A867B060B418B607BE10D418D804DB04DC02DD20DF01000202300420050206100A820D020F02111416801718188019801A821B10A8
:4005C0001C041E401F0224022540260427042C202D202F81360437213D943E024408450147044C014F20572159015E20600461406D146F0174A076027720868087408B2016
:400600008D028E209A80A220C078C299C476CAF0CCE0CEF0D0E0D230D621D80CE040E290EC10001902640303042105040680087F090C0C600D021040110314671510161813
:40064000190F1A011D081E662010210124082503270C2818290F2C192D0C2E622F033060330F34803510361F3A803B083F10580459045C225F018201870188028D0C8F122B
:400680009002930C9510970698029B049F01A110A30AA402A501A901AD20AF02B130B202B301B50EB601B90ABB20BE04D804D904DC21DF0101A803800520060807400808AD
:4006C0000A840B020C100E080F8810A0115013241420150C19411A041BC01E201F40200421042420250226012708282029602A022D262E80309031083201354036213708CA
:40070000388239103B063E403F0878087908800483408801890A8A028B088D408F04908292C29420978099829A889B209C089D019F08A0A0A108A224A401A502A610A780E3
:40074000A808AB17AD08B140B521B608C05FC25FC42FCAFFCCFFCE5FE004E6A0E89033803610CC30A610A7808610A610A780E6101140A780C4407D20DE018110A510450237
:40078000D001A5020740270482208B409F04A940AB80B704C020C820E22012201640734076208220864093409A20AB40C430DC80DE20E010E480EC80B502EC081040740276
:4007C00080028840C408DE04E201000608060A0610061A061C06000E81800000430000000104060000100800001010000000000900100C00000600090006000000001000C3
:40080000000E030101020E000C0F0300000900060F000007100E00100000020800001000250403000600C0E028FFFFFF62A0F0410C0000000000021104040404222200016C
:4008400000000000000040020010301000101012000000000000000000000000000000008300408083008300000000000200000000000000000B0B00000000000000000053
:4008800000007800070018010000000000000000000000000000000000000000000000000000000000000000000000000000000000000000000000000000000000000000A0
:4008C00000000000000000000000000000000000000000000000000000000000000000000000000000000000000000000000000000000000000000000000000000000000F8
:4009000000000000000000000000000000000000000000000000000000000000000000000000000000000000000000000000000000000000000000000000000000000000B7
:400940000000000000000000000000000000000000000000000000000000000000000000000000000000000000000000000000000000000000000000000000000000000077
:400980000000000000000000000000000000000000000000000000000000000000000000000000000000000000000000000000000000000000000000000000000000000037
:0200000490006A
:0400000000004005B7
:0200000490105A
:04000000BC90ACAF55
:0200000490303A
:020000007D6B16
:0200000490402A
:4000000000000000000000000000000000000000000000000000000000000000000000000000000000000000000000000000000000000000000000000000000000000000C0
:400040000000000000000000000000000000000000000000000000000000000000000000000000000000000000000000000000000000000000000000000000000000000080
:400080000000000000000000000000000000000000000000000000000000000000000000000000000000000000000000000000000000000000000000000000000000000040
:4000C0000000000000000000000000000000000000000000000000000000000000000000000000000000000000000000000000000000000000000000000000000000000000
:0200000490501A
:0C00000000012E16106900012E1D8DD489
:00000001FF