:400000000080002011000000510700005107000080B500AF024A034B1B68136000F0CCFBBC760040FA46004010B5054C237833B9044B13B10448AFF300800123237010BDA0
:400040008081FF1F00000000E8510000084B10B51BB108490848AFF300800848036803B910BD074B002BFBD0BDE81040184700BF000000008481FF1FE8510000C880FF1F20
:40008000000000002DE9F0419AB006AF62B60023A7F84E304A23BB6401F04AF902F06AF801F044FA00F012FF00F0ECFC444800F017FC444800F062FC434801F0B5F900F003
:4000C0001DFF424B1B78DBB2002BFAD0B7F84E30184602F089F8FF2387F84D30BB6CDBB20021184601F03CFC034687F8473097F8473003F0F003002B20D1002001F032FD43
:40010000034687F8473097F8473003F0F003002B14D1BB6CDBB20121184601F08DFC034687F8473097F8473003F0F003002B05D1002001F067FD034687F84D3001F0DAFC29
:4001400002F06CF80346A7F84E30B7F84E305B089BB2C3F30B03A7F84E3000F041F81C4B1B68184602F074FD80461A4B1B68184602F034FA04460D4697F84D60B7F84E30FF
:40018000184602F0BDFB03461349184602F0C4FC0346184602F022FA02460B46381DCDE904230296CDE9004542460C4903F026FA3B1D184601F038F9044B00221A7080E745
:4001C0002902000065020000F05100009C81FF1FD081FF1FB081FF1F000020410052000080B500AF0B4B1A680B4B1B68B2FBF3F3184602F085FB0246084B1A60074B1B689E
:400200000749184602F088FC03461A46054B1A6000BF80BDA881FF1FAC81FF1FD081FF1F00002041B081FF1F80B582B000AF00F075FE0346184600F0AFFE03467B60074B47
:400240001A687B681344054A1360054B1B680133034A136000BF0837BD4680BDA081FF1FA481FF1F80B500AF00F02EFC00F07AFB0A4B1B680A4A13600A4B1B680A4A1360D8
:40028000064B00221A60074B00221A6000F05EFB064B01221A7000BF80BD00BFA081FF1FA881FF1FA481FF1FAC81FF1F9C81FF1F80B582B000AF786039603A6800217868E8
:4002C00002F023FD00BF0837BD4680BD80B584B000AFF860B9607A607A68B968F86802F009FD00BF1037BD4680BD00BF80B483B000AF0346FB71FEE780B487B000AF786049
:40030000396000233B6100237B6127E07B699B007A6813441B68BB60BB68FB73BB6823F0FF03BB6014E03B695B003A6813441B781A46BB68134419463B695B003A68134475
:400340005B780B703B6901333B61FB7B013BFB73FB7B002BE7D17B6901337B617B69242BD4D900BF1C37BD4680BC704780B582B000AF454B00221A80444B50221A70444BEA
:400380000E221A80434B18221A70434B19221A80424B18221A70424B1D221A80414B18221A70042240494148FFF790FF404B02221A704FF0402308221A703E4B03221A7033
:4003C0003D4B3E4A1278D2B21A703D4B08221A803C4B41F251221A800023FB7019237B6014E0FB785B00DAB2374B1B78DBB203F00103DBB21343DBB203F00303FB704FF49F
:40040000F07001F05DFF7B68013B7B607B68002B02D0FB78032BE4D17B68002B02D10320FFF764FF294B4FF480721A80274B07221A70274B00221A70264B48221A70234B29
:4004400000221A70244B02221A70244B04221A70234A234B1B78DBB243F00F03DBB21370204A204B1B78DBB243F00103DBB213701D4A1D4B1B78DBB263F07F03DBB2137034
:4004800000BF0837BD4680BD80400040824000408440004086400040884000408A4000408C4000408E400040080D0048004100400043004000420040A1460040080100496A
:4004C000224200402042004025420040044000400640004008400040014000400B400040A2430040A1430040A043004080B483B000AF0E4B1B78FB710D4AFB7903F00703CF
:40050000DBB213700B4AFB791B09DBB213700A4B01221A70094B10221A70094B44221A7000BF0C37BD4680BC704700BFCF0100496E5800406F5800400D510040005B004042
:400540007658004080B483B000AF0346FB71FB79012B0ED8FB79094A52F82330FA79074951F822201178FA790548825C0A43D2B21A7000BF0C37BD4680BC70473852000066
:400580004052000080B483B000AF0346FB71FB79012B10D8FB790A4A52F82330FA79084951F822201178FA790648825CD243D2B20A40D2B21A7000BF0C37BD4680BC704791
:4005C000385200004052000080B586B000AF72B64C4A4C4B1B78DBB243F00403DBB213700023FB7513E0FA7D13465B0013445B00454A13443B613B691A683B699B889BB2E7
:4006000019461046FFF754FEFB7D0133FB75FB7D082BE8D90023FB751CE0FA7D13469B0013445B00394A1344FB60FB681B68BB60FB685B687B60FB681A7A5B7A1B02134313
:400640007B807B881A467968B868FFF73FFEFB7D0133FB75FB7D022BDFD92D494FF09040FFF74AFE2B4B0A221A702B4A2A4B1B78DBB243F00203DBB21370284A274B1B78B7
:40068000DBB243F00203DBB21370254A244B1B78DBB243F04003DBB21370224A214B1B78DBB243F01003DBB2137008221E491F48FFF70CFE0A221E491E48FFF707FE08227D
:4006C0001D491E48FFF702FE1D4A1D4B1B78DBB243F00803DBB213701A4B60221A70FFF745FE184B80221A70174B01221A70FFF7FDFE0E220A491548FFF7E8FD00BF1837F9
:40070000BD4680BDE8460040445200007C52000094000048835800400350014013500140A0430040C2430040EC0C004802510040F40C0048C0510040000D004812510040AC
:40074000224300400048004004000840B043004080B500AF02F0A2FA03461B680C2B00D1FEE7FEE780B584B000AF7860104B1A687B6813441A460F4BD31AB3F5006F09DC13
:400780000B4B1B68FB600A4B1A687B681344084A136007E002F082FA02460C2313604FF0FF33FB60FB6818461037BD4680BD00BFCC80FF1FF081FF1F80B586B000AF224B9D
:4007C0007B61224B3B61204B7B6135E03B691B68FB603B695B68BB603B699B683B6000237B600CE0FB681A68BB681A60BB680433BB60FB680433FB607B6804337B607A68C5
:400800003B689A42EED13B69DB683B6000237B6008E0BB6800221A60BB680433BB607B6804337B607A683B689A42F2D13B6910333B617B69013B7B617B69002BC6D102F0AE
:4008400033FAFFF71FFCFEE7010000002054000080B582B000AF184B184A1A60184A184B1B6843F40073136000237B600FE07B68032B04D8134A7B6852F8233000E0124B32
:4008800012497A6841F822307B6801337B607B682F2BECD90E4B1B78DAB20E4B1A700E4B0A4A1A60FFF790FE0C4B00221A6000BF0837BD4680BD00BF0CED00E00004FA05AA
:4008C00014ED00E000000000510700000080FF1FBC760040C480FF1F08ED00E0C080FF1F80B582B000AF786000F03CF8786800F009F8072000F018F800F028F800BF083702
:40090000BD4680BD80B485B000AF7860054B1B68FB60FB68B4337A681A6000BF1437BD4680BC704708ED00E080B483B000AF0346FB71054AFB795B01DBB2137000BF0C37E2
:40094000BD4680BC704700BF1DE400E080B400AF034B4FF000521A6000BFBD4680BC704700E100E080B400AF034B4FF000521A6000BFBD4680BC704780E100E080B582B096
:4009800000AF786000F03CF8786800F009F8072000F018F800F028F800BF0837BD4680BD80B485B000AF7860054B1B68FB60FB6840337A681A6000BF1437BD4680BC7047F6
:4009C00008ED00E080B483B000AF0346FB71054AFB795B01DBB2137000BF0C37BD4680BC704700BF00E400E080B400AF034B01221A6000BFBD4680BC704700BF00E100E0AA
:400A000080B400AF034B01221A6000BFBD4680BC704700BF80E100E080B582B000AF0F4800F05EF80D4800F075F801F068FC0346FB710B4A0A4B1B78DBB243F01003DBB227
:400A40001370FB79184601F05EFC00F071F8012000F02AF800BF0837BD4680BDFF1AB7009E64004080B400AF054A054B1B78DBB263F07F03DBB2137000BFBD4680BC7047BE
:400A80007F64004080B500AF064B1B78002B04D1FFF7C2FF034B01221A70FFF7E3FF00BF80BD00BFB481FF1F80B483B000AF0346FB71044AFB79137000BF0C37BD4680BC62
:400AC000704700BF8E64004080B400AF034B1B78DBB21846BD4680BC704700BF6E64004080B582B000AF78607968034800F09AF800BF0837BD4680BD2C64004080B400AF4B
:400B0000034B1B6823F07F431846BD4680BC70474C64004080B582B000AF78607968034800F080F800BF0837BD4680BD0C64004080B500AF01E0FFF7E1FFFFF7C5FF0346BD
:400B400003F00803002BF6D100BF80BD80B483B000AF0346FB7101BE00BF0C37BD4680BC704700BF80B582B000AF0346FB80FB88054A127802FB03F3184601F0A1FB00BF75
:400B80000837BD4680BD00BFD880FF1F80B584B000AF03463960FB710F4B1B68FB60FB791F2B02D90020FFF7D1FFFB7903F01F0310339B00FA6813441B68BB60FB7903F03F
:400BC0001F0310339B00FA6813443A681A60BB6818461037BD4680BD08ED00E080B582B000AF03460A46FB711346BB71BB79072B02D90020FFF7AAFFFB791F2B02D90020EA
:400C0000FFF7A4FFFB7903F01F0303F1604303F56443BA795201D2B21A7000BF0837BD4680BD00BF80B485B000AF786039607B68FB603B68DAB2FB681A70FB6801333A68AF
:400C4000120AD2B21A70FB6802333A68120CD2B21A7000BF1437BD4680BC704780B582B002AF324B01221A70314B00221A70102001F00CF9102001F0EFF907210120FFF70C
:400C8000ADFF2C4B04221A702B4B00221A702B4B00221A702A4A2A4B1B78DBB243F01803DBB21370274B00221A70274B00221A70264B00221A70264B0A221A70254B0022A4
:400CC0001A70254B00221A70244B12221A70244B13221A70234B00221A70234B14221A70012300930C234FF400424FF40041032000F022FA1D4A0D4B1B78DBB2013B1C490D
:400D00009B000B449B7813701A4A084B1B78DBB2013B174931F823301380044B1B78DBB2184600F057F900BFBD4680BDE080FF1FB881FF1F96580040975800409E5800403D
:400D4000075B004093580040885B0040895B004080580040815800408358004088580040895800408D580040014E00400E4E0040C081FF1F0C4E004080B582B000AF01F082
:400D8000BEFA0346FB71434B1B78BB71424A424B1B78DBB243F00103DBB213703E4A3E4B1B78DBB243F01003DBB213703B4A3B4B1B78DBB243F00103DBB21370374A374BFD
:400DC0001B78DBB243F01003DBB21370344A344B1B78DBB243F00203DBB21370314A314B1B78DBB243F00203DBB213702E4A2E4B1B78DBB243F00303DBB213700320FFF746
:400E0000B1FE274A264B1B78DBB223F00203DBB21370244A234B1B78DBB223F00203DBB21370224A214B1B78DBB243F00603DBB213701F4B7A221A701E4A1E4B1B78DBB2F0
:400E400043F00103DBB213701B4A1B4B1B78DBB243F00103DBB21370184A184B1B78DBB243F00103DBB21370154A154B1B78DBB243F00103DBB21370124B02221A60124B4F
:400E800002221A60FB79184601F03DFA00BF0837BD4680BDE080FF1FAA430040BA430040F8460040F9460040915800407758004082580040A1430040B1430040A2430040A8
:400EC000B243004080E200E000E100E080B500AF084B1B78002B09D1074B1B78DBB2002B01D1FFF7BBFE034B01221A70FFF744FF00BF80BDBA81FF1FBB81FF1F80B400AF07
:400F0000054A054B1B78DBB243F00103DBB2137000BFBD4680BC7047004E004080B483B000AF174B1B78DBB203F003037B717B79012B03D8134B1B88FB8011E0114B1B7894
:400F4000DBB2FB80104B1B78DBB29BB21B029AB2FB881343FB807B79032B01D10B4B1B780B4B1B78DBB2002B02D00A4B00221A70B7F9063018460C37BD4680BC704700BF57
:400F8000144E0040104E0040114E0040124E0040B981FF1FB881FF1F80B485B000AF78600A4B1B687A68D31A7B607B684FF47A7202FB03F2064B1B6892FBF3F3FB81B7F91A
:400FC0000E3018461437BD4680BC7047BC81FF1FD481FF1F80B582B000AF0346FB71384B00221A70FB79012B66D1364B38221A70354B06221A70354B08221A70344B002209
:401000001A70344B00221A70334B1F221A70334B00221A70324B00221A70324B00221A70314B01221A70314B14221A70304B04221A70304B18221A702F4B00221A702F4BC7
:4010400011221A702E4B12221A702E4B00221A702D4B01221A702D4B11221A702C4B19221A702C4B97221A70442000F01DF92A4B58221A70294B00221A70294B05221A70DF
:40108000284B02221A70284B00221A70274B00221A70002000F028FE254B40F29B221A600121052000F034FE0121BA2000F016FF20490120FFF76AFD00BF0837BD4680BD34
:4010C000B981FF1F004E0040024E0040034E0040044E0040054E0040064E0040084E0040094E00400A4E0040144E0040845800408558004086580040875800408A58004031
:401100008B5800408C5800408E5800408F580040905800409158004094580040955800409A5800409B5800409C5800409D580040D481FF1F2513000090B587B000AF044683
:40114000084611461A462346FB710346BB800B467B801346BB7197F82830002B00F08B8097F82830012B00F28680FB79013B092B4AD801A252F823F0A11100000912000055
:4011800009120000A11100000912000009120000BB110000D511000009120000EF110000BB790F2B04D9374B1B78DBB2FB752EE0354B1B78DBB2FB7529E0BB790F2B04D990
:4011C000324B1B78DBB2FB7521E0314B1B78DBB2FB751CE0BB790F2B04D92E4B1B78DBB2FB7514E02C4B1B78DBB2FB750FE0BB790F2B04D9294B1B78DBB2FB7507E0284BF2
:401200001B78DBB2FB7502E00023FB7500BFBA8897F917305B0113443B617B883A6902FB03F3FB60FB68DB0BBB82BB790D2B12D8BA8ABB79C3F10E0342FA03F3BB8297F877
:401240002830013BBA790132D1B2164A9B0013440A469A7007E097F82830013B114A9B0013440F229A7097F82830013B0D49BA8A21F8232002E00020FFF768FC00BF1C372C
:40128000BD4690BD180100491C010049190100491D0100491A0100491E0100491B0100491F010049C081FF1F80B584B000AF0346FB7101F024F80346FB73174A164B1B786D
:4012C000DBB243F00303DBB21370144A134B1B78DBB243F00303DBB21370114AFB7913700320FFF73FFC0C4A0B4B1B78DBB223F00303DBB21370094A084B1B78DBB223F07F
:401300000303DBB21370FB7B184600F0FCFF00BF1037BD4680BD00BFF8460040F94600409258004080B400AF00BFBD4680BC704780B500AF064B1B78002B04D100F00AF85A
:40134000034B01221A7000F025F800BF80BD00BFC481FF1F80B400AF094B72221A70094B20221A70084B06221A70084B47221A70074B00221A7000BFBD4680BC704700BF15
:40138000876400408865004029640040396400408B64004080B582B000AF00F0B0FF0346FB71114A104B1B78DBB243F02003DBB213700E4A0D4B1B78DBB243F01003DBB2B3
:4013C00013700B4A0A4B1B78DBB243F01003DBB2137000F069FEFB79184600F094FF00BF0837BD4680BD00BF97640040986500409B64004080B483B000AF0346FB7100BF60
:40140000074B1B78DBB203F00403002BF8D1054AFB79137000BF0C37BD4680BC704700BF6B6400404864004080B584B000AF78600023FB810C4B1B78002B10D009E0FB8963
:401440007A6813441B781846FFF7D4FFFB890133FB81FB897A6813441B78002BEFD100BF1037BD4680BD00BFC481FF1F80B582B000AF1B4B00221A701A4B01221A7000F078
:401480003EFF0346FB71184A174B1B78DBB243F01003DBB21370FB79184600F034FF134B0F221A70124B08221A70124B04221A6007210220FFF792FB0F490220FFF766FB46
:4014C0000E4B10221A700E4B00221A700D4B00221A700D4B00221A7000BF0837BD4680BD7565004089650040996500402F6400403F64004080E100E059150000D881FF1F2A
:40150000DE81FF1FE681FF1FDC81FF1F80B400AF054A054B1B78DBB243F00203DBB2137000BFBD4680BC70477565004080B500AF074B1B78002B04D1FFF798FF044B0122AD
:401540001A70FFF7E3FF034B04221A6000BF80BDC681FF1F00E100E080B582B000AFA64B1B78FB71A54B1B78DBB203F04003DBB2002B00F0CD81FB7903F00103002B00F031
:40158000A4819E4B1B78DBB2453B052B00F2998101A252F823F000BFB1150000F7160000C3180000C3180000B11500002D180000FB7923F02003FB71FB7903F00A03DBB2D7
:4015C000082B54D18D4B1B78DBB2452B42D18C4B1B78DBB2002B15D08A4A8B4B1B681B78DBB21370894B06221A70894BFF221A70884B00221A70884B01221A707F4B46220B
:401600001A7062E1854B1B78DBB203F00203002B0ED0834B1B78DBB243F00A03DAB2804B1A70764B60221A707E4B04221A604CE17D4A7D4B1B78DBB243F02003DBB2137065
:40164000724B52221A70724BFF221A70714B00221A703AE16D4B02221A706D4BFF221A706C4B00221A70654B4A221A702DE1FB7903F00A03DBB20A2B39D1694B1B78DBB2D0
:4016800063F05F03DAB2664B1A70644B1B78DBB203F00203002B18D0584B1B78DBB203F00803002B01D0092300E00A23DAB25C4B1B78DBB21343DAB2594B1A704F4B60225F
:4016C0001A70584B04221A60FFE0574A564B1B78DBB243F02003DBB213704C4B52221A704B4BFF221A704B4B00221A70EDE00020FFF72CFAE9E0FB7903F00203002B4AD1DA
:40170000454B1B78DAB23E4B1B78DBB29A421AD23C4A3D4B1B6840490978C9B20B441B78DBB21370394B06221A70394BFF221A70384B00221A70384B1B78DBB20133DAB28A
:40174000354B1A70C1E0354B1B78DBB203F00203002B0ED0324B1B78DBB243F00A03DAB22F4B1A70254B60221A702E4B04221A60ABE02D4A2C4B1B78DBB243F02003DBB29F
:401780001370224B52221A70214BFF221A70214B00221A7099E0214B1B78DBB203F00203002B0ED01E4B1B78DBB263F06503DAB21B4B1A70114B60221A701A4B04221A60D9
:4017C00083E0194A184B1B78DBB243F02003DBB213700E4B52221A700D4BFF221A700D4B00221A700E4B1B78DBB263F06F03DAB20B4B1A7069E000BF69650040D881FF1FA5
:40180000DD81FF1F05640040E881FF1F756500401564004055640040DC81FF1FE481FF1FDE81FF1F80E100E089650040404B1B68404A1278D2B213443F4A1278D2B21A7028
:401840003C4B1B78DBB20133DAB23A4B1A70394B1B78DAB2394B1B78DBB29A4209D2384B02221A70374BFF221A70374B00221A702BE0364B1B78DBB203F00203002B0ED0BB
:40188000334B1B78DBB243F00903DAB2304B1A70304B60221A70304B04221A6015E02F4A2E4B1B78DBB243F02003DBB21370244B12221A70234BFF221A70234B00221A704B
:4018C00003E00020FFF742F900BFFB7903F02003002B28D01F4B1B78DBB203F00803002B01D0012300E00223DAB2194B1B78DBB21343DAB2164B1A70184A184B1B78DBB2D9
:4019000023F02003DBB21370124B10221A700AE0104B1B78DBB203F01003DBB2002B02D10C4B10221A7000BF0837BD4680BD00BFE081FF1FE681FF1F05640040E581FF1F11
:40194000756500401564004055640040E481FF1FDE81FF1FD881FF1F80E100E08965004080B485B000AF03460A46FB711346BB710223FB73294B1B78DBB2102B47D1284B26
:401980001B78DBB203F01003002B3ED1254B04221A60FB795B00FB71BB79002B07D0FB7943F00103FB711D4B49221A7002E01B4B45221A701C4AFB7913701C4B82221A70A7
:4019C0001B4BFF221A701B4B00221A7000BF184B1B78DBB2002BFAD100BF114B1B78DBB203F00103002BF8D00D4B1B78DBB203F00A03DBB20A2B05D1084B10221A70032322
:401A0000FB7304E00023FB7301E00123FB73FB7B18461437BD4680BC704700BFD881FF1F6965004080E100E00564004075650040156400405564004080B485B000AF0346E0
:401A40000A46FB711346BB710223FB73234B1B78DBB203F00403002B3AD0FB795B00FB71BB79002B07D0FB7943F00103FB711C4B49221A7002E01A4B45221A70194AFB79E2
:401A80001370194B32221A70184BFF221A70184B00221A7000BF154B1B78DBB2002BFAD100BF0E4B1B78DBB203F00103002BF8D00A4B1B78DBB203F00A03DBB20A2B05D1E0
:401AC000074B10221A700323FB7301E00023FB73FB7B18461437BD4680BC704769650040D881FF1F0564004075650040156400405564004080B483B000AF0223FB71144BBD
:401B00001B78DBB203F00403002B1BD0114B52221A70114BFF221A70104B00221A7000BF0D4B1B78DBB2002BFAD10D4B10221A7000BF074B1B78DBB203F02103002BF8D091
:401B40000023FB71FB7918460C37BD4680BC704769650040756500401564004055640040D881FF1F80B485B000AF0346FB710223FB731E4B1B78DBB203F00403002B2ED06E
:401B80001B4AFB7913701B4B06221A701A4BFF221A701A4B00221A7000BF174B1B78DBB2002BFAD1164B46221A7000BF0F4B1B78DBB203F00103002BF8D00C4B1B78DBB26C
:401BC00003F00203002B05D10D4B60221A700023FB7304E00A4B60221A700323FB73FB7B18461437BD4680BC704700BF6965004005640040756500401564004055640040C7
:401C0000D881FF1F80B485B000AF0346FB710023FB73224B1B78DBB203F00403002B37D01F4B1B78DBB2492B11D11E4B02221A701D4BFF221A701D4B00221A7000BF1A4BD4
:401C40001B78DBB2002BFAD1154B4A221A7000BF124B1B78DBB203F00103002BF8D0144B1B78FB73FB79002B0FD00E4B02221A700D4BFF221A700D4B00221A7000BF0A4BD2
:401C80001B78DBB2002BFAD102E0054B60221A70FB7B18461437BD4680BC704769650040D881FF1F7565004015640040556400400564004080B582B000AF0023FB7106E036
:401CC000FB791846FEF75EFCFB790133FB71FB79012BF5D9034BFF221A7000BF0837BD4680BD00BFE180FF1F80B582B000AF0346FB71FFF7DFFFFB791846FEF723FC034AFA
:401D0000FB79137000BF0837BD4680BDE180FF1F80B584B000AF03460A46FB8013467B7100F0CEF80346FB7300F0A4F80346BB81FA88BB899A4200F08880464B1B78DBB2B5
:401D400003F00103FB72FB7B002B20D1BB89002B02D0FB88002B1AD1BB89002B0BD13E4AFB8813803D4A3D4B1B78DBB223F04003DBB2137069E0394A384B1B78DBB243F073
:401D80004003DBB21370344AFB8813805DE0FB7A002B33D0324B00221A70324B01221A70314B00221A70314A304B1B78DBB203F07F03DBB21370294B1B78DBB203F00803B4
:401DC000002B02D0FB88002B18D1294ABB891380234B07221A7000BF214B1B78DBB203F00103002BF8D11B4A1A4B1B78DBB223F00103DBB213701A4B00221A70154B1B7899
:401E0000DBB203F00103002B13D0194AFB881380134A7B79002B01D0032300E00123137000BF0F4B1B78DBB203F00103002BF8D10BE0094AFB8813800649064B1B78DAB266
:401E4000FB7A1343DBB20B70FFE700BF1037BD4680BD00BFA24300408040004082400040014000401040004014400040084000400240004080B400AF034B1B889BB218464F
:401E8000BD4680BC704700BF8040004080B483B000AF0346FB710949084B1B78DBB25AB297F9073023F007035BB213435BB2DBB20B7000BF0C37BD4680BC7047824000407B
:401EC00080B400AF044B1B78DBB203F00703DBB21846BD4680BC70478240004080B584B000AF03460A46FB8013467B7100F0CEF80346FB7300F0A4F80346BB81FA88BB89FB
:401F00009A4200F08880464B1B78DBB203F00103FB72FB7B002B20D1BB89002B02D0FB88002B1AD1BB89002B0BD13E4AFB8813803D4A3D4B1B78DBB223F04003DBB21370CE
:401F400069E0394A384B1B78DBB243F04003DBB21370344AFB8813805DE0FB7A002B33D0324B00221A70324B01221A70314B00221A70314A304B1B78DBB203F07F03DBB265
:401F80001370294B1B78DBB203F00803002B02D0FB88002B18D1294ABB891380234B07221A7000BF214B1B78DBB203F00103002BF8D11B4A1A4B1B78DBB223F00103DBB249
:401FC00013701A4B00221A70154B1B78DBB203F00103002B13D0194AFB881380134A7B79002B01D0032300E00123137000BF0F4B1B78DBB203F00103002BF8D10BE0094AF3
:40200000FB8813800649064B1B78DAB2FB7A1343DBB20B70FFE700BF1037BD4680BD00BFA14300400041004002410040014000401440004010400040084000400240004036
:4020400080B400AF034B1B889BB21846BD4680BC704700BF0041004080B483B000AF0346FB710949084B1B78DBB25AB297F9073023F007035BB213435BB2DBB20B7000BFF4
:402080000C37BD4680BC70470241004080B400AF044B1B78DBB203F00703DBB21846BD4680BC70470241004080B400AF094A094B1B78DBB243F00403DBB21370064A064B1C
:4020C0001B78DBB243F00403DBB2137000BFBD4680BC7047A2430040B243004080B500AF084B1F221A7000F0A7F800F061F800F06DF8054B00221A70044B00221A7000BF82
:4021000080BD00BF8D6400408A6400408C64004080B582B000AF00F0F2F80346FB71124A114B1B78DBB243F02003DBB213700F4A0E4B1B78DBB243F01003DBB213700C4AB3
:402140000B4B1B78DBB243F01003DBB21370FB79184600F0D8F800F01FF800F023F800BF0837BD4680BD00BF9D6400409A6400409C64004080B500AF064B1B78002B04D16B
:40218000FFF7ACFF034B01221A70FFF7C1FF00BF80BD00BFC781FF1F80B400AF00BFBD4680BC704780B400AF00BFBD4680BC704780B483B000AF044B1B78FB71FB79184646
:4021C0000C37BD4680BC70476A64004080B483B000AF044B1B78FB71FB7918460C37BD4680BC70476C64004080B483B000AF0346FB8000BF074B1B78DBB203F00403002BE9
:40220000F8D0054AFB88138000BF0C37BD4680BC704700BF6A6400404A64004080B483B000AF044B1B88FB80FB8818460C37BD4680BC70475A64004080B582B000AF01E02C
:402240001A4B1B881A4B1B78DBB203F02003002BF6D100F054F80346FB71164A154B1B78DBB243F00103DBB21370124A114B1B78DBB223F00103DBB213700F4A0E4B1B786D
:40228000DBB243F00103DBB213700B4A0A4B1B78DBB223F00103DBB21370FB79184600F032F800BF0837BD4680BD00BF5A6400406C6400409A6400409B64004000000000E5
:4022C000142816D902B4012114381049097811F0C001890904B40E4A515C04BC00BF00BF00BF8841FDD500BF00BF02BC704700BF00BF70F10400FCD570470B050709EFF3AC
:40230000108072B6704780F31088704700480040FA22000081F0004102E000BF83F0004330B54FEA41044FEA430594EA050F08BF90EA020F1FBF54EA000C55EA020C7FEA19
:40234000645C7FEA655C00F0E2804FEA5454D4EB5555B8BF6D420CDD2C4480EA020281EA030382EA000083EA010180EA020281EA0303362D88BF30BD11F0004F4FEA01316D
:402380004FF4801C4CEA113102D0404261EB410113F0004F4FEA03334CEA133302D0524263EB430394EA050F00F0A780A4F10104D5F1200E0DDB02FA0EFC22FA05F28018DD
:4023C00041F1000103FA0EF2801843FA05F359410EE0A5F120050EF1200E012A03FA0EFC28BF4CF0020C43FA05F3C01851EBE37101F0004507D54FF0000EDCF1000C7EEBCF
:4024000000006EEB0101B1F5801F1BD3B1F5001F0CD349085FEA30004FEA3C0C04F101044FEA445212F5800F80F09A80BCF1004F08BF5FEA500C50F1000041EB045141EAE1
:40244000050130BD5FEA4C0C404141EB010111F4801FA4F10104E9D191F0000F04BF01460020B1FA81F308BF2033A3F10B03B3F120020CDA0C3208DD02F1140CC2F10C02E9
:4024800001FA0CF021FA02F10CE002F11402D8BFC2F1200C01FA02F120FA0CFCDCBF41EA0C019040E41AA2BF01EB0451294330BD6FEA04041F3C1CDA0C340EDC04F1140417
:4024C000C4F1200220FA04F001FA02F340EA030021FA04F345EA030130BDC4F10C04C4F1200220FA02F001FA04F340EA0300294630BD21FA04F0294630BD94F0000F83F410
:40250000801306BF81F480110134013D4EE77FEA645C18BF7FEA655C29D094EA050F08BF90EA020F05D054EA000C04BF1946104630BD91EA030F1EBF0021002030BD5FEA29
:40254000545C05D14000494128BF41F0004130BD14F580043CBF01F5801130BD01F0004545F0FE4141F470014FF0000030BD7FEA645C1ABF194610467FEA655C1CBF0B4640
:40258000024650EA013406BF52EA033591EA030F41F4002130BD00BF90F0000F04BF0021704730B54FF4806404F132044FF000054FF0000150E700BF90F0000F04BF00214E
:4025C000704730B54FF4806404F1320410F0004548BF40424FF000013EE700BF42004FEAE2014FEA31014FEA02701FBF12F07F4393F07F4F81F06051704792F0000F14BF57
:4026000093F07F4F704730B54FF4607401F0004521F0004120E700BF50EA010208BF704730B54FF000050AE050EA010208BF704730B511F0004502D5404261EB41014FF46A
:40264000806404F132045FEA915C3FF4DCAE4FF003025FEADC0C18BF03325FEADC0C18BF033202EBDC02C2F1200300FA03FC20FA02F001FA03FE40EA0E0021FA02F114445A
:40268000C1E600BF4FF0FF3C06E000BF4FF0010C02E000BF4FF0010C4DF804CD4FEA410C7FEA6C5C4FEA430C18BF7FEA6C5C1BD001B050EA410C0CBF52EA430C91EA030FF9
:4026C00002BF90EA020F0020704710F1000F91EA030F58BF994208BF90422CBFD8176FEAE37040F0010070474FEA410C7FEA6C5C02D150EA013C07D14FEA430C7FEA6C5C8F
:40270000D6D152EA033CD3D05DF8040B704700BF8446104662468C461946634600E000BF01B5FFF7B7FF002848BF10F1000F01BD4DF808EDFFF7F4FF0CBF012000205DF8D6
:4027400008FB00BF4DF808EDFFF7EAFF34BF012000205DF808FB00BF4DF808EDFFF7E0FF94BF012000205DF808FB00BF4DF808EDFFF7CEFF94BF012000205DF808FB00BFD1
:402780004DF808EDFFF7C4FF34BF012000205DF808FB00BF80F0004002E000BF81F0004142001FBF5FEA410392EA030F7FEA226C7FEA236C6AD04FEA1262D2EB1363C1BF14
:4027C000D218414048404140B8BF5B42192B88BF704710F0004F40F4000020F07F4018BF404211F0004F41F4000121F07F4118BF494292EA030F3FD0A2F1010241FA03FC3E
:4028000010EB0C00C3F1200301FA03F100F0004302D5494260EB4000B0F5000F13D3B0F1807F06D340084FEA310102F10102FE2A51D2B1F1004F40EBC25008BF20F001009E
:4028400040EA03007047490040EB000010F4000FA2F10102EDD1B0FA80FCACF1080CB2EB0C0200FA0CF0AABF00EBC25052421843BCBFD0401843704792F0000F81F4000128
:4028800006BF80F400000132013BB5E74FEA41037FEA226C18BF7FEA236C21D092EA030F04D092F0000F08BF0846704790EA010F1CBF0020704712F07F4F04D1400028BFD9
:4028C00040F00040704712F100723CBF00F50000704700F0004343F0FE4040F4000070477FEA226216BF08467FEA23630146420206BF5FEA412390EA010F40F48000704715
:402900004FF0000304E000BF10F0004348BF40425FEA000C08BF704743F0964301464FF000001CE050EA010208BF70474FF000030AE000BF50EA010208BF704711F00043E0
:4029400002D5404261EB41015FEA010C02BF84460146002043F0B64308BFA3F18053A3F50003BCFA8CF2083AA3EBC25310DB01FA02FC634400FA02FCC2F12002BCF1004FC6
:4029800020FA02F243EB020008BF20F00100704702F1200201FA02FCC2F1200250EA4C0021FA02F243EB020008BF20EADC7070474FF0FF0C1CEAD0521EBF1CEAD15392EAD9
:4029C0000C0F93EA0C0F6FD01A4480EA010C400218BF5FEA41211ED04FF0006343EA501043EA5111A0FB01310CF00040B1F5000F3EBF490041EAD3715B0040EA010062F154
:402A00007F02FD2A1DD8B3F1004F40EBC25008BF20F00100704790F0000F0CF0004C08BF49024CEA502040EA51207F3AC2BFD2F1FF0340EAC250704740F400004FF00003A8
:402A4000013A5DDC12F1190FDCBF00F000407047C2F10002410021FA02F1C2F1200200FA02FC5FEA310040F1000053EA4C0308BF20EADC70704792F0000F00F0004C02BFCB
:402A8000400010F4000F013AF9D040EA0C0093F0000F01F0004C02BF490011F4000F013BF9D041EA0C018FE70CEAD15392EA0C0F18BF93EA0C0F0AD030F0004C18BF31F08B
:402AC000004CD8D180EA010000F00040704790F0000F17BF90F0004F084691F0000F91F0004F14D092EA0C0F01D142020FD193EA0C0F03D14B0218BF084608D180EA01001A
:402B000000F0004040F0FE4040F40000704740F0FE4040F4400070474FF0FF0C1CEAD0521EBF1CEAD15392EA0C0F93EA0C0F69D0A2EB030280EA010C49024FEA402037D09E
:402B40004FF0805343EA111143EA10130CF000408B4238BF5B0042F17D024FF4000C8B4224BF5B1A40EA0C00B3EB510F24BFA3EB510340EA5C00B3EB910F24BFA3EB910361
:402B800040EA9C00B3EBD10F24BFA3EBD10340EADC001B0118BF5FEA1C1CE0D1FD2A3FF650AF8B4240EBC25008BF20F0010070470CF0004C4CEA50207F32C2BFD2F1FF0388
:402BC00040EAC250704740F400004FF00003013A37E792F0000F00F0004C02BF400010F4000F013AF9D040EA0C0093F0000F01F0004C02BF490011F4000F013BF9D041EADB
:402C00000C0195E70CEAD15392EA0C0F08D142027FF47DAF93EA0C0F7FF470AF084676E793EA0C0F04D14B023FF44CAF08466EE730F0004C18BF31F0004CCAD130F0004291
:402C40007FF45CAF31F000437FF43CAF5FE700BF4FEA4002B2F1FE4F0FD34FF09E03B3EB12620DD94FEA002343F0004310F0004F23FA02F018BF404270474FF000007047B4
:402C800012F1610F01D1420205D110F0004008BF6FF0004070474FF000007047014B1868704700BF4481FF1F0E4B70B51E460E4C0025E41AA410A54204D056F825309847ED
:402CC0000135F8E702F09AFB084B094C1E46E41AA4100025A54204D056F8253098470135F8E770BD0854000008540000085400001054000010B5431E0A44914204D011F83A
:402D0000014B03F8014FF8E710BD03460244934202D003F8011BFAE770472DE9F04788B0149F002B1E461299B8BF03F1004327F02007B6BF1E4600232D23462F1446109D45
:402D4000DDF84CA00B7003D0452F03D1013501E0032300E0022307AA049206AA03928DE828042246334600F003FD472F804602D1119BDB0728D5462F08EB050911D198F83A
:402D80000030302B0AD10022002320463146FFF7CFFC18B9C5F10105CAF80050DAF8003099440022002320463146FFF7C1FC08B9302202E0CDF81C9006E0079B994503D9CF
:402DC000591C07911A70F8E74046079B159AC8EB0303136008B0BDE8F087034673B50029B8BF494203F8022BB4BF2D222B22092942701ADD0DF1070216460A2591FBF5F4D1
:402E000005FB1411092C01F1300102F8011D2146F4DC3031541E02F8011CB4421A460AD214F8012B03F8012BF7E71A463024214402F8024B5970101A02B070BD2DE9F04FE6
:402E400091B00C46DDF8688016461F46054601F027FA03681846099300F0F4FB00230E93D8F800300A90073323F0070303F1080294F81890D4F800B0C8F80020D3E900237E
:402E8000C4E91223D4F84CA0D4F848802AF000430B934FF0FF32A74B40460B9902F066F9A0B94FF0FF32A34B40460B99FFF754FC60B90022002340465146FFF743FC10B174
:402EC0002D2384F843309C4B9C4A0AE0424653464046514602F04AF9002800F09281984B984AB9F1470F8CBF90469846032323612BF0040323604FF0000A3DE0B9F1670FA5
:402F000000F08A81B9F1470F00F0868123600193636800210DF13302059002920093424653460691CDF81090CDF80CE02846FFF7F4FE09F0DF03472B804600F08481B9F1D7
:402F4000650F0D9900F28D8101394A4604F150000D91FFF742FF0E9A82468318012A236100F37C812268D10700F178819DF8333013B12D2384F84330009733460FAA214632
:402F8000284600F09FF9013002D14FF0FF3096E123685A0501D4236965E0B9F1650F40F2D580D4E9120100220023FFF7C1FB78B30123654A31462846B8470130E5D00E9BC5
:402FC0000D9A9A420BDB2368D80708D423689B0740F111814FF0000804F1190906E10A9B099A31462846B8470130CED04FF0000804F11A090E9B013B9845E7DA01234A465C
:4030000031462846B8470130BFD008F10108F1E70D9B002B29DC01234B4A31462846B8470130B2D00D9B23B90E9B13B92368D907CCD50A9B099A31462846B8470130A4D014
:403040004FF0000904F11A0A0D9B5B42994509DA0123524631462846B847013095D009F10109F1E70E9B4246A7E00E9AA36D9A42A8BF1A46002A914606DC4FF0000A29EA85
:40308000E97904F11A0B11E01346314642462846B8470130F1D178E701235A4631462846B84701303FF471AF0AF1010AA36DC9EB03029245F0DB08EB03090D9A0E9B9A42C4
:4030C0000FDB2368DA070CD40E9B0D9A9844C9EB08089B1A9845A8BF9846B8F1000F08DC0FE00A9B099A31462846B8470130EBD14BE743464A4631462846B84701303FF49C
:4031000044AF4FF0000928EAE87804F11A0A09E00123524631462846B84701303FF435AF09F101090D9A0E9B9B1AC8EB03039945EEDB4BE7FFFFEF7F9C520000A052000011
:40314000A4520000A8520000AC5200000E9A012A01DCDB0738D50123424631462846B84701303FF412AF0A9B099A31462846B84701303FF40AAFD4E9120100220023FFF7B9
:40318000D7FA20B14FF0000804F11A090EE00E9B08F10102013B19E001234A4631462846B84701303FF4F1AE08F101080E9B013B9845F1DB534604F1500231462846B84757
:4031C00001307FF403AFE0E64246012331462846B8470130EED1D8E601234A4631462846B84701303FF4D1AE08F10108E3680F9A9B1A9845F0DBE0680F9B9842B8BF184606
:403200005DE062680EA8531C0DF1340E4BF480637FF474AE062201E012B90122626075E6002106910DF133018DE80C00236005904246CDF81090CDF80CE00291534628469C
:40324000FFF76BFD80460D9BD81C02DB626893421DDDA9F102095FFA89F970E60133236184E6B9F1660F14D10029636807DD216113B92268D2071DD501330B4419E013B959
:403280002268D00701D5023313E0012311E04FF067090D9B0E9A934205DB22682361D10708D5013305E0002BD4BFC3F102030123134423610D9B4FF0000AA36556E611B09E
:4032C000BDE8F08F2DE9F04791461F460A698B6806469342B8BF1346C9F8003091F843200C46DDF8208012B10133C9F800302368990642BFD9F800300233C9F8003025685F
:4033000015F0060510D104F1190A07E00123524639463046C04701301AD00135E368D9F800209B1A9D42F1DB94F843302268003318BF012392060FD5E118302081F84300C0
:403340005A1C94F845102244023382F8431003E04FF0FF30BDE8F08704F1430239463046C0470130F4D02268D9F80050E36802F00602042A08BF5D1B2269A3680CBF25EA29
:40338000E57500259342C4BF9B1AED184FF000091A344D4509D00123224639463046C0470130D5D009F10109F3E70020BDE8F0872DE9F04317460A7E85B06E2A98460646DE
:4033C0000C460C9B01F1430E00F0AE8011D8632A22D009D8002A00F0BB80582A40F0CA8081F84520834955E0642A1ED0692A1CD0C0E0732A00F0B08009D86F2A2ED0702A90
:4034000040F0B8800A6842F020020A603EE0752A24D0782A3AD0ADE01A6801F14205111D1960136884F84230A8E021681A6811F0800F02D0111D196008E011F0400F02F178
:403440000401196002D0B2F9003000E01368002B3CDA2D225B4284F8432037E021681A6811F0800F02D0111D196007E011F0400F02F10401196001D0138800E01368227E80
:403480005C496F2A14BF0A2208221BE078225A4984F845202268186812F0800F00F104051D6003D1550601D5038800E00368D00744BF42F0200222601BB9226822F020025D
:4034C00022601022002084F8430001E049490A226568002DA56008DB206820F0040020602BB9002D7DD175460CE0002B79D07546B3FBF2F002FB1033CB5C05F8013D0346EC
:403500000028F5D1082A0BD12368DA0708D5236962689A42DEBF302305F8013C05F1FF35C5EB0E0323612EE008681A6810F0800F496903D0101D1860136808E010F0400F10
:4035400002F104001860136801D0198000E0196000232361754616E01A68111D1960156800216268284600F0A7FE08B1401B6060636804E004F1420584F84220012323616D
:40358000002384F84330CDF800803B4603AA21463046FFF797FE013002D14FF0FF3026E023692A4639463046C0470130F5D023689B0710D5002504F1190907E001234A46CF
:4035C00039463046C0470130E7D00135E368039A9B1A9D42F2DBE068039B9842B8BF184605E00B7804F1420584F842308AE705B0BDE8F083AE520000BF5200000EB400B57B
:403600004FF402719CB0ADF814106FF00041049107914FF6FF711DAB02900690084853F8042BADF81610006802A9019301F03AFA029B00221A701CB05DF804EB03B0704729
:403640004481FF1F034613F8012B002AFBD1181A013870472DE9F74F03690C6980469C427FDC013C01F114074FEA840E00F1140606EB0E0357F82450019356F82430013542
:40368000B3FBF5F507EB0E09C5B34FF0000A3846B446D34650F8043B9AB205FB02A21B0C4FEA124A05FB03A392B2C2EB0B0BBCF800204FEA134A5A441FFA83FBDCF8003094
:4036C0008145CBEB134303EB224392B242EA03424FEA234B4CF8042BDCD256F80E306BB9019B043B9E421A4602D3C8F8104005E01268043B002AF8D1013CF3E7404600F05A
:40370000F6FF00282BDB304601354FF0000E57F8042B036891B2C1EB0E0E120C99B27144C2EB134303EB214389B24FEA234EB94541EA034340F8043BE9D256F8242006EBFD
:40374000840362B9043B9E421A4602D3C8F8104005E01268043B002AF8D1013CF3E7284600E0002003B0BDE8F08F0000000000002DE9F04F456A95B08246219CCDE90223AD
:4037800045B9102000F090FDCAF82400456085600560C560DAF82430196859B15A68012393404A608B60504600F0C9FDDAF8243000221A60039BA04A002BBDBF0123236081
:4037C000039B0023BCBF23F000430393DDF80C80A8BF236028F000431B0D1B0593421DD142F20F73209A1360029B43B9934A944BC8F31300002814BF1846104600E0904883
:40380000229B002B00F04685C37813B100F1080300E0C31C229A136000F03CBDDDE902450022002320462946FEF782FF074658B1209A01231360229B002B00F01E8581488B
:403840001860013800F026BD12AB019313AB009322462B46504600F0C5FFC8F30A56049056B1C5F3130343F07F51204641F44011A6F2FF3611971DE0139B129E1E4406F262
:403880003243202B0ADD029A06F21240C3F1400322FA00F008FA03F3184304E0C3F12000029B03FA00F0FEF777FE0123A1F1F871013E11930022644BFEF730FD58A3D3E9CD
:4038C000002301F041FA58A3D3E90023FEF728FD044630460D46FEF76FFE55A3D3E9002301F032FA02460B4620462946FEF718FD04460D4601F050FC002283460023204656
:403900002946FEF71FFF58B15846FEF755FE02460B4620462946FEF70BFF08B90BF1FF3BBBF1160F0DD8DDE90223484901EBCB01D1E90001FEF724FF30B10BF1FF3B0023BB
:4039400000E00123109300E01090129B9E1B731E079343BFC3F10008002307934FF00008BBF1000F06DB079BCDF82CB05B440793002705E00023CBEB0808CBF100070B935F
:403980001E9B092B28D8052BC4BF043B1E931E9BC8BF0025A3F10203D8BF0125032B20D8DFE803F0060E0204012302E0012308E000230A931F9B002B1DDD9946059321E099
:4039C00000230A931F9B0BEB030909F10103012B0593B8BF012315E0012500231E930A9501E001230A934FF0FF390022CDF8149012231F9206E04FF001094B46CDF81490AD
:403A0000CDF87C90DAF8244000226260042101F114029A421CD86268490001326260F6E761436F63A787D23FB3C8608B288AC63FFB799F501344D33F0000F07FD05200008A
:403A4000D9520000AD5200000000F83FE85200006168504600F03EFCDAF8243020601B680693059B0E2B00F25B81002D00F05881DDE90234BBF1000FCDE90E3430DD9F4A1E
:403A80000BF00F034FEA2B1502EBC303E80618CBCDE908340CD5DDE90E01994B05F00F05D3E9082301F07AFA0324CDE9020100E00224934E6DB1E90708D5DDE90801D6E9DB
:403AC000002301F041F9CDE9080101346D100836F0E7DDE90823DDE9020101F05FFA20E0CBF1000505B3DDE90E01844B05F00F0203EBC203D3E9002301F026F9CDE9020170
:403B00007F4E2D110023022455B1EA0705D5D6E9002301F019F9013401236D100836F3E71BB1CDE9020100E00224109BE3B1DDE902560022734B28463146FEF703FE98B1A1
:403B4000059B8BB1B9F1000F40F3E6800BF1FF330893314600226C4B284601F0F5F80134CDE902014E4602E0059ECDF820B02046FEF722FDDDE9022301F0E6F8634B002212
:403B8000FEF7CEFBA1F1507304460C931D46D6B9DDE9020100225E4BFEF7C0FB22460C9BCDE90201FEF7ECFD002840F03F820C99224601F10043DDE90201FEF7C3FD00282C
:403BC00040F02B82A8E00A9A4C4B711E002A49D003EBC103D3E9002300204E4901F0DEF922462B46FEF79AFBCDE90C01069CDDE9020101F0D1FA0546FEF7DEFC02460B4643
:403C0000DDE90201FEF78AFBDDE90C23303504F8015BCDE90201FEF795FD002840F01D83DDE9022300203749FEF778FBDDE90C23FEF788FD002840F0D180069BE31AB342B9
:403C40006ADADDE90C0100222F4B01F07DF80022CDE90C01DDE902012B4B01F075F8CDE90201C4E703EBC1012246D1E900012B4601F06AF8069BCDE90C011D469C19DDE96C
:403C8000020101F089FA0646FEF796FC02460B46DDE90201FEF742FB303605F8016BAC42CDE902014FF0000222D11A4BDDE90C01FEF736FB02460B46DDE90201FEF760FD6A
:403CC000002840F08B80DDE90C2300201149FEF725FB02460B46DDE90201FEF733FDD8B114F8013C621E302B40F0B7821446F7E7054B01F029F8CDE90201C0E7E85200000C
:403D0000C05300000000F03F0000244000001C40000014400000E03FDDE90E34CDE90234139B002B7CDBBBF10E0F79DCAB4B03EBCB03D3E900671F9B002B14DA059B002B59
:403D400011DC40F06C810022A54B3046394600F0FBFFDDE90223FEF709FD059D2E46002840F05F8165E1069CDDE9028932463B464046494601F012F901F00EFA0546FEF798
:403D80001BFC32463B4600F0DFFF0B46024649464046FEF7C3FA05F1300E069B04F801EBC3EB040E059B73452DD102460B46FEF7B7FA8046894602460B4630463946FEF79B
:403DC000C1FC78B942464B4630463946FEF7B0FC002800F04482EB0704D440E2DDF820B000E01C4614F8012C631E392A07D1069A9A42F6D1069930220BF1010B0A701A7838
:403E000001321A702BE20022764B00F09DFF0022002380468946FEF78BFC0028A6D01EE20A9A002A2BD01E9A012A0ADC119A12B103F2334302E0129BC3F136033D46444661
:403E400013E0059B5D1EAF42BFBF0B9BEA1B9B180B93059BB6BF2F467D1B0025002BA7BF4446059BC3EB08040023079A01211A4450469844079200F001FB064602E03D4621
:403E800044460A9E5CB1079B002B08DDA342A8BF2346079AC3EB0808E41AD31A0793002F1DDD0A9BABB18DB131462A46504600F07FFB049A01460646504600F0E8FA0499F3
:403EC0000890504600F03BFA089B04937A1B06D000E03A460499504600F06AFB04900121504600F0CBFA0B9B05465BB31A460146504600F05DFB1E9B0546012B18DC029B9C
:403F000083B9039BC3F3130373B9039B23F000473F0D3F054FB1079B08F1010801330793012702E0002700E0029F0B9B73B100E000272B6905EB8303186900F052FAC0F1BA
:403F4000200004E01E9B012BD9DD0B9F0120079B184410F01F0008D0C0F12003042B02DDC0F11C0002E006D018461C30079B8044034404440793B8F1000F05DD4246049983
:403F8000504600F063FB0490079B002B05DD29461A46504600F05AFB0546109B23B32946049800F0A4FB00281EDA00230A220499504600F0DBF90A9B0BF1FF3B0490002BCA
:403FC00000F05F81314600230A22504600F0CEF9B9F1000F06463FDC3BE000BFE85200000000144000002440059B002B2BDC1E9B022B28DDDDF81490B9F1000F11D12946B2
:404000004B460522504600F0B1F901460546049800F06DFB00280CDC03E0354600E000252E461F9B069C6FEA030B09E03546DDF820B0069B069A5C1C312313700BF1010BC7
:4040400005960026F7E00A9BDDF8149023B9069CB2E01E9B022BCFDC002C05DD31462246504600F0F3FA06469FB17168504600F031F90446326906F10C01023292000C3079
:40408000FEF738FE01222146504600F0DFFA059000E00596029B069F03F00103079329460498FFF7D7FA3146044600F13008049800F01DFB059A02902946504600F033FB55
:4040C000C36802463BB901460A90049800F00FFB0A9A034600E00123114650460A9300F02EF90A9B53B91E9A42B9079A32B9B8F1390F2AD0029B002B1CDC1DE0029A002AF2
:4041000004DB1BD11E9ACAB9079ABAB9002B13DD01220499504600F099FA2946049000F0E6FA002803DC07D118F0010F04D0B8F1390F0AD004F131087C1C0CE0002B07F133
:4041400001040BDDB8F1390F03D139233B70013756E008F1010887F800806CE0069B2746E31A4B4504F8018C3BD000230A220499504600F0FBF8059B04909E424FF00A02D8
:404180004FF000033146504604D100F0EFF80646059084E700F0EAF8002306460A220599504600F0E3F8059079E700230A220499504600F0DBF8049029460498FFF74AFA39
:4041C000069B00F1300804F8018BE31A4B45ECDB069B0596B9F1010FACBF4B4401331F46002601220499504600F030FA2946049000F07DFA002803DC15D118F0010F12D0A9
:404200003C4614F8013C621E392B09D1069B934204D10BF1010B3123069A02E01446F0E70133137007E03C4614F8013C621E302B01D11446F8E72946504600F080F8059B3F
:404240006BB12EB19E4203D03146504600F077F80599504600F073F801E0DDF820B00499504600F06CF80023209A23700BF101031360229B1BB11C6001E008480AE00698E7
:4042800008E0B9F1000F3FF7E2AE1E9B022B7FF7DEAEB1E615B0BDE8F08F00BFAC520000004870474881FF1F024B0146186800F041BB00BF4481FF1F10B5C9B20244904292
:4042C000034605D01C7801308C42F8D1184610BD002010BD70B5456A04460E463DB91020FFF7E2FF6062456085600560C560656AEB6843B1636ADB6853F8260078B10268BD
:4043000043F8262017E021220421204600F0B8FA636AE860DB68002BECD1002070BD012101FA06F56A1D9200204600F0A9FA0028F3D04660856000230361C36070BD70B56C
:40434000446A06460D463CB91020FFF7ADFF7062446084600460C4603DB1736A6A68DB6853F82210296043F8225070BD2DE9F04106460C460D691F4601F1140E0023DEF8BA
:404380000000013381B202FB0171000C0F0C02FB007089B201EB00419D424FEA10474EF8041BECDCD7B1A3689D4212DB616830460131FFF78FFF8046226904F10C010232B4
:4043C00092000C30FEF796FC21463046FFF7B7FF444604EB850301355F6125612046BDE8F081030C1B0413B90004102300E0002310F07F4F04BF0002083310F0704F04BF62
:404400000001043310F0404F04BF80000233002803DB420003D5581C70471846704720207047036813F007020BD0D90722D49A074BBF5B089B08036003604CBF01200220F9
:40444000704799B209B91B0C102213F0FF0F04BF1B0A0832190704BF1B090432990704BF9B080232D90702D45B0805D00132036010467047002070472020704710B50C46FF
:404480000121FFF727FF01224461026110BD2DE9F74F14460A69236988469A42BEBF0B46A0461C46D8F81070D4F81090D8F80830D8F8041007EB09069E42C8BF0131FFF719
:4044C00009FF00F114052B4605EB860C0022634502D243F8042BFAE704F1140208F1140102EB890301EB87070093009B0192934257D9B2F800B0BBF1000F23D08946AE4631
:404500004FF0000859F8044BBEF800A0A3B20BFB03A34FEA144ADEF8004043444FEA14480BFB0A84F24604EB13449BB243EA04434F454FEA14484AF8043B01D9D646E1E739
:40454000CEF80480019B0432B3F802A0BAF1000F21D02C4689462B684FF00008B9F800E0B4F802B09BB20AFB0EBEA346F04443EA08434BF8043B59F8043BB4F804E01B0CA1
:404580000AFB03E34F4503EB18434FEA134801D95C46E3E763600435A7E75CF8043D13B9013E002EF9DC066103B0BDE8F08F00002DE9F843154612F0030206460F4607D0C3
:4045C000214C013A002354F82220FFF7CFFE0746AD1036D0746A3CB91020FFF765FE7062446084600460C460D6F82480D8F808404CB940F271213046FFF740FF04460023E6
:40460000C8F8080003604FF00008EB070AD5394622463046FFF73BFF814639463046FFF78EFE4F466D100CD0206808B10446ECE7224621463046FFF72AFF2060C0F8008004
:40464000F4E73846BDE8F883B05300002DE9F0470C460746914626694FEA621A56444968A368751CAB4202DA01315B00FAE73846FFF730FE002380461A4600F11401534510
:4046800003DA41F823200133F9E72AEAEA73206901EB830319F01F0904F1140101EB800E14D0C9F1200C002208689A4600FA09F0024343F8042B51F8042B8E4522FA0CF229
:4046C000F2D8CAF8042042B1B51C06E0043B51F8042B8E4543F8042FF9D8013D3846C8F810502146FFF72BFE4046BDE8F08703690A6910B59B1A11D19200143014318318A2
:404700000A4453F8044D52F8041D8C4202D007D3012010BD9842F4D3002010BD184610BD4FF0FF3010BD2DE9F8430C460746114620461546FFF7DBFF061E08D131463846FE
:40474000FFF7C8FD012303614661BDE8F883BCBF23462C4638466168BABF1D4601260026FFF7B8FD2B69C660266905F1140904F1140101EB860709EB830800F114054FF017
:40478000000C51F8042B59F8044B93B29C44A3B2240CC3EB0C03C4EB124202EB23429BB24FEA224CC84543EA02428E4645F8042BE7D8BE450ED25EF8041B8AB26244131447
:4047C00003EB114392B242EA03424FEA234C45F8042BEEE755F8043D0BB9013EFAE70661BDE8F8832DE9F3411C4601219046089E099DFFF76FFDC4F31302C4F30A54074660
:404800000CB142F480120192B8F1000F19D002A840F8088DFFF705FE009B48B1019AC0F1200102FA01F10B43C2407B61019200E07B61019B002B14BF02210121BB61396150
:4048400007E001A8FFF7EDFD019B01217B613961203034B1A4F2334404443460C0F1350009E0A0F2324007EB810330601869FFF7B8FDC0EB41102860384602B0BDE8F081A7
:4048800038B502FB01F4214600F054F8054618B122460021FEF739FA284638BD38B50546002944D051F8043C0C1F002BB8BFE41800F017FA1E4A1368114613B96360146049
:4048C00030E0A3420DD92268A018834201BF18685B681218226063600C6023E0A24203D813465A68002AF9D118681918A1420BD12168014458188242196013D11068526826
:40490000014419605A600DE002D90C232B6009E021686018824201BF106852680918216062605C602846BDE8384000F0DBB938BDCC81FF1F70B5CD1C25F0030508350C2DAD
:4049400038BF0C25002D064601DBA94202D90C23336046E000F0C5F9234B1C681A462146A1B10B685B1B0ED40B2B03D90B60CC18CD501EE08C420BBF63684B6813606360C0
:4049800018BF0C4615E00C464968E9E7174C23681BB9304600F07AF920602946304600F075F9431C18D0C41C24F00304A0420DD12560304600F096F904F10B00231D20F0DC
:4049C0000700C31A0ED05A42E25070BD211A304600F05CF90130EBD10C233360304600F081F9002070BD00BFCC81FF1FC881FF1F2DE9F0478E6882469E420C4691469846A5
:404A00003ED88A8912F4906F3AD02568096902236F1A656905EB450595FBF3F57B1C43449D4238BF1D4653050FD52946FFF782FF064698B13A462169FEF75CF9A38923F46C
:404A4000906343F08003A38113E02A4600F04BF9064670B921695046FFF720FF0C23CAF80030A3894FF0FF3043F04003A381BDE8F08726613E44266046466561ED1BA560C9
:404A8000464528BF464649463246206800F00EF9A36800209B1BA36023681E442660BDE8F08700002DE9F04F9DB003938B8980461C060D4616460DD50B695BB94021FFF75B
:404AC00039FF2860286118B90C23C8F80030CDE040236B610023099320238DF82930DFF89CB130238DF82A3037463C4614F8013B1BB9B7EB060910D003E0252BF9D0274656
:404B0000F3E74B46324629464046FFF771FF013000F0A780099B4B4409933B78002B00F0A08000234FF0FF3204930793059206938DF853301A930126052221784E48FFF716
:404B4000BBFB671C049B38B14B4A3C46801A06FA00F018430490EFE7D90644BF20228DF853201A0744BF2B228DF8532022782A2A03D0079A00210A200BE0039A111D1268AC
:404B80000391002A10DA524243F00200079204900BE027463B780134303B092B03D800FB02320121F5E701B107923B782E2B1ED17B782A2B0AD1039B02371A1D1B680392E1
:404BC000002BB8BF4FF0FF33059310E0002319460593781C0A2407463A780130303A092A03D804FB01210123F5E703B10591032239782248FFF760FB40B14023CBEB000090
:404C000003FA00F0049B013718430490397806221B487E1C8DF82810FFF74EFB88B1194B33B9039B073323F007030833039314E003AB00932A46144B04A94046FEF7FEF87E
:404C400007E003AB00932A460F4B04A94046FEF7AFFBB0F1FF3F824603D0099B5344099342E7AB895B0601D4099801E04FF0FF301DB0BDE8F08F00BFE8530000EE53000070
:404C8000F25300003D2E0000F149000038B5064C0023054608462360FBF764FD431C02D1236803B12B6038BDEC81FF1F884210B501EB020301D8421E0BE09842FBD28118D9
:404CC000D21AD34204D013F8014D01F8014DF8E710BD994204D011F8014B02F8014FF8E710BD70477047F8B5074615460E4621B91146BDE8F840FFF71DBE1AB9FFF7CEFD0F
:404D00002846F8BD00F015F885420ED929463846FFF710FE044650B131462A46FDF7EAFF31463846FFF7BAFD01E03046F8BD2046F8BD51F8040C0028BEBF091851F8043C34
:404D4000C01804387047000070B54FF0FF0C4CF4E06C1CEA11541DBF1CEA135594EA0C0F95EA0C0F00F0DEF82C4481EA030621EA4C5123EA4C5350EA013518BF52EA0335CC
:404D800041F4801143F4801338D0A0FB02CE4FF00005E1FB02E506F00042E0FB03E54FF00006E1FB03569CF0000F18BF4EF0010EA4F1FF04B6F5007F64F5407404D25FEAC7
:404DC0004E0E6D4146EB060642EAC62141EA55514FEAC52040EA5E504FEACE2EB4F1FD0C88BFBCF5E06F1ED8BEF1004F08BF5FEA500E50F1000041EB045170BD06F00046DB
:404E000046EA010140EA020081EA0301B4EB5C04C2BFD4EB0C0541EA045170BD41F480114FF0000E013C00F3AB8014F1360FDEBF002001F0004170BDC4F10004203C35DAB0
:404E40000C341BDC04F11404C4F1200500FA05F320FA04F001FA05F240EA020001F0004221F0004110EBD37021FA04F642EB06015EEA430E08BF20EAD37070BDC4F10C044B
:404E8000C4F1200500FA04F320FA05F001FA04F240EA020001F0004110EBD37041F100015EEA430E08BF20EAD37070BDC4F1200500FA05F24EEA020E20FA04F301FA05F268
:404EC00043EA020321FA04F001F0004121FA04F220EA020000EBD3705EEA430E08BF20EAD37070BD94F0000F0FD101F00046400041EB010111F4801F08BF013CF7D041EA68
:404F0000060195F0000F18BF704703F00046520043EB030313F4801F08BF013DF7D043EA0603704794EA0C0F0CEA135518BF95EA0C0F0CD050EA410618BF52EA4306D1D167
:404F400081EA030101F000414FF0000070BD50EA410606BF1046194652EA430619D094EA0C0F02D150EA013613D195EA0C0F05D152EA03361CBF104619460AD181EA03013B
:404F800001F0004141F0FE4141F470014FF0000070BD41F0FE4141F4780170BD70B54FF0FF0C4CF4E06C1CEA11541DBF1CEA135594EA0C0F95EA0C0F00F0A7F8A4EB0504E8
:404FC00081EA030E52EA03354FEA013100F088804FEA03334FF0805545EA131343EA12634FEA022245EA111545EA10654FEA00260EF000419D4208BF964244F1FD0404F543
:40500000407402D25B084FEA3202B61A65EB03055B084FEA32024FF480104FF4002CB6EB020E75EB030E22BFB61A754640EA0C005B084FEA3202B6EB020E75EB030E22BF47
:40504000B61A754640EA5C005B084FEA3202B6EB020E75EB030E22BFB61A754640EA9C005B084FEA3202B6EB020E75EB030E22BFB61A754640EADC0055EA060E18D04FEA23
:40508000051545EA16754FEA06164FEAC30343EA52734FEAC2025FEA1C1CC0D111F4801F0BD141EA00014FF000004FF0004CB6E711F4801F04BF01430020B4F1FD0C88BFF4
:4050C000BCF5E06F3FF6AFAEB5EB030C04BFB6EB020C5FEA500C50F1000041EB045170BD0EF0004E4EEA113114EB5C04C2BFD4EB0C0541EA045170BD41F480114FF0000E33
:40510000013C90E645EA060E8DE60CEA135594EA0C0F08BF95EA0C0F3FF43BAF94EA0C0F0AD150EA01347FF434AF95EA0C0F7FF425AF104619462CE795EA0C0F06D152EA02
:4051400003353FF4FDAE1046194622E750EA410618BF52EA43067FF4C5AE50EA41047FF40DAF52EA43057FF4EBAE12E74FEA410C7FEA6C5C02D150EA013C0AD14FEA430CFD
:405180007FEA6C5C02D152EA033C02D14FF0000070474FF0010070474FEA410212F5001215D211D56FF47873B3EB625212D94FEAC12343F0004343EA505311F0004F23FAF3
:4051C00002F018BF404270474FF00000704750EA013005D111F0004008BF6FF0004070474FF00000704700BF0000000000000000434F4D20506F7274204F70656E0D0A00F6
:405200007B2022414443223A202564202C20224C4D3335223A20252E31662C202254433734223A2025642C2022535049223A20252E3166207D0D0A00035B004024430040C1
:4052400040000000205100405000F05100401000000001408004000501400009800E0140800100140140000800400140000A004C01400002005001402000000060520040DE
:40528000E40B0048060080040140EC0B00488000000E01406C0C004880004300494E4600696E66004E414E006E616E00300030313233343536373839414243444546003025
:4052C00031323334353637383961626364656600496E66696E697479004E614E00504F534958002E00000000000000000000F03F0000000000002440000000000000594048
:405300000000000000408F40000000000088C34000000000006AF8400000000080842E4100000000D01263410000000084D797410000000065CDCD41000000205FA0024262
:40534000000000E876483742000000A2941A6D42000040E59C30A2420000901EC4BCD64200003426F56B0C430080E03779C3414300A0D8855734764300C84E676DC1AB43BA
:40538000003D9160E458E143408CB5781DAF154450EFE2D6E41A4B4492D54D06CFF08044F64AE1C7022DB544B49DD9794378EA4405000000190000007D0000000000000049
:4053C0000080E03779C34143176E05B5B5B89346F5F93FE9034F384D321D30F94877825A3CBF737FDD4F1575232D302B2000686C4C0065666745464700000000F8B500BFD3
:40540000F8BC08BC9E4670474D00000051080000F8B500BFF8BC08BC9E4670472900000030540000C880FF1FB80000007000000000000000F081FF1F00366E01C05D0000A8
:40544000180000000000E02E01FF000000000000000000000000000000000000000000000000000000000000000000009A520000000000000000000000000000000000001A
:405480000000000000000000000000000000000000000000000000000000000000000000000000000000000000000000E480FF1FE3520000ED530000ED530000ED53000075
:4054C000ED530000ED530000ED530000ED530000ED530000ED530000FFFFFFFFFFFFFFFFFFFFFFFFFFFF00000000000000000000000000000000000000000000000000003A
:40550000000000000000000000000000000000000000000000000000000000000000000000000000000000000000000000000000000000000000000000000000000000006B
:40554000000000000000000000000000000000000000000000000000000000000000000000000000000000000000000000000000000000000000000000000000000000002B
:4055800000000000000000000000000000000000000000000000000000000000000000000000000000000000000000000000000000000000000000000000000000000000EB
:4055C00000000000000000000000000000000000000000000000000000000000000000000000000000000000000000000000000000000000000000000000000000000000AB
:020000040003F7
:0200000480007A
:40000000076400400165004001010140020301402304014037050140470601404C0701406A080140500901406A0A0140450B0140660C0140450D01402E0E01403A0F0140FF
:40004000491401404E1501404B1601404E170140531801404F190140121B01400640014002410140074201400843014006440140024501400446014005470140044801405A
:400080000F490140024C0140074D0140095001400251014025042F0F3F0887728B0F8D1F8E0D8838E6019802B402011F0501080109010C020D420E040F091001114F14028F
:4000C0001540160417141B011D481F022190230B250329402B0B2D032F2031E0331F3407382039023E103F01580459045C305F0100200301041005020608071108020908BB
:400100000C410E291480158016261B101F44210D2340251026402705288129102A082B012D802F6431083351344036143701388039803A243B023D203E8A45204F625680A0
:400140008224834589048A018C089802C0F3C2FCC4F0CAFFCCFFCEFFD020D230E405000402E0040108920A600B010D010E02103D12C2130215011608170418E21B061C0D88
:400180001F0222FF2308245D26A2270228012C402E1D3301350E36FF3B203E40580459045C305F01802A825484338501860C89018C0E8D018E3092019502984699029AA9B1
:4001C0009CFF9D02A080A102A256A440A613B101B302B4FFB808BB80BE04BF04D602D712D804D904DB04DC23DD20DF010210034105900621074008010A040B020D080E8876
:400200000F021040122014D21508161419101A041B081F80208022C424102508263029012C102F80325834803614370139943C103F40411043205A0869946A1070147202C6
:40024000730889048E9091089342949098019B019C809D909E249F10A008A240A301A410A520A634A840AD01AF01B301B512B720C0FDC2FBC4FCCAC1CCFECE3ED602E8075C
:40028000EA20EC02001F05180724080A0A11111D13201414151D160917601C011E06201F234029022B2C2D502F253103321833783504360739023B083F1040234104450CC6
:4002C000460E470B481549FF4AFF4BFF4EF04F44500C580459045A045C225D025F0166C06A406B02802084C2860C872088208B038C988D0C8E068F7190C29110921C934048
:400300009420951097AC98019D099E189FD0A020A420A514AA46ADDCAE10AF22B020B201B31FB4C0B61EB7E0B822BA80BB80BE15C002C740C9FFCA07CBFFCC40CD20CEF03F
:40034000CF05D008D804D904DA04DC22DD02DF01E040E1A8E240E320000201A003100420068008400A880B200E211020110112061502180419881B011E212010214022449B
:40038000230224082608275029802A082C402D802F043040320A334036083702381039803A043F084004450847124F085108520653045480560879107B0489098C848D4012
:4003C0008E809101951098229A209C84A020A480A601A702A980AA10AC22B184B242B420C05FC2AFC41FCABACCCBCE4ED0E4E060E410E8C4EA20EE010508090D0B020C01CE
:400400000D020F05110813011C0128013001310E33013B023E013F04406441054230440149FF4AFF4BFF4C024E704F0850045409580459045A045B045C105D115F0162C061
:40044000644065016610671168C069016B116C406D016E406F018340853F89408B148D0F91049308958099409B189C01A150A302A550A701A940AB08AF20B401B53FB7C087
:40048000B9A0BE10BF40C064C105C230C401C5DEC6F0C7BCC83BC9FFCAFFCBFFCC23CEF0CF08D004D401D804D904DA04DB04DC30DD21DF01E2C0E440E501E610E711E8C06C
:4004C000E901EB11EC40ED01EE40EF0100400A020C800E011310160817201B011E0821062201240227042C202D012E102F02310234243601384039203A083B503C803E025D
:400500003F28418A458A4B504D0A4F5055045619580159885B205C805D105E0963028314880189098F0490409120940296029A209D029E19A040A108A240A504A702C00115
:40054000C281C402CAF0CCE1CEFED0DBD23CD6FFD808E480E61002010505070A0C010D030F041C011D0E210422012309240128013401370F39803E10401649FF4AFF4BFF6C
:400580004F0150185440580459045A045B045C105D195F016040624064406540668068806A806C806E8080568209840A85188610870289128B088C078D038E388F04900431
:4005C0009108931294019508980499019B089C049D1AA004A10CA303A404A502AA04AC60AD1AB27FB310B50FB808BB20BF04C016C9FFCAFFCBFFCD83CE03CF01D018D6029C
:40060000D72CD804D904DA04DB04DC11DD19DF01E040E240E440E540E680E880EA80EC80EE8000480380054206800A590C800D4010801114120117251A101F10200821382F
:400640002304264029402A082B802F8030803120320433013640384039143C403F04434047404A084E08620266906720688069146A406B257140720190409208940295B4F4
:4006800096029A209B409D409F05A040A20AA380A480A504A702B710C09DC28FC47FCA8BCC1FCE5ED018D224D871EA10880D89018C0D900192029402960D98029A049C0236
:4006C0009E08A00DA40DAC0DAD01B20FB301B908BA08BF04C025C625C80CC9FFCAFFCBFFCC42CDA0CE70D008D110D280D804D904DA04DB04DC01DD93DF01E148E240E348F8
:40070000E480E548E680E748001001080301054006010708084009040A4A0C400D100E50108011141201130815801705184019081A481E102242272028402B802F02320AE3
:400740003340385039203F204340472049064A084C01520854405620571059065A806080774080808508C0C7C2FFC4BFCA11CC0BCE2CD028D214D60BD801E408011005189D
:400780000613080109080A060D6010121124120113801567161317181801191C1A041B621F04217C2301261B27632801297F2A322D403020320733783408351F36103780C5
:4007C0003A083B283E40580459045C235F0182038408863089028A038E03900192069408961098019A049C029E41A203A403A701A803B007B220B302B440B501B618BA029E
:40080000D2F6D804D904DB04DC33DD30DF01000403080508074509080A440C080E880F02112013041498180419401A401B081D2C1E811F10225825102604280329112B2054
:400840002F103258330238283A423E105E0C6E106F1076A58008810886018B018C028D108E808F02902893049620989899019A429B459C019D449EA59F10A008A280A32058
:40088000A520A64CA702A880AC10AD40AE40B228B604B748C0F6C2FEC476CA4FCC0FCE2FE088E808EA02EC0AEE0101010201030205010602070408040E04101A12601302CA
:4008C0001402150F18FF19011B021CA51D081E4A1F0522B5231024A9265428CC29052A132B0A2C4D2D062E92311F36FF3E40580459045C305F018003864B870288308B0FD6
:400900008C019030924F93019470960F970F9B049C209F08A07FA10FA410A50FA710A84FAA30AB08AC02B038B270B30FB404B510B603B820BA02BF04D804D904DC32DF0184
:4009400001100240032206A509400A600C820D080E08100112881308148A15081704180619011A501F8020202110230424802740288829142C022F88309A32203341348250
:4009800035103604392C3D043F02454046024C044D108004821086408C019028910894809620980299109A029B099C809D019E259F50A008A108A2A0A321A410A520A60C62
:4009C000A802AA20AF08B040B110C0FFC2FDC4FFCAB7CCFFCEC6E005E208EC02060109010A080E0216081E04210126012D012E02300131013202340C39023E154031410507
:400A00004206440246C047E0482849FF4AFF4BFF4C624DA04EF04F41500C5418580459045A045B045C305D225F016640670269106A306B106D106E106F128003811083E00E
:400A40008A018D108F2090039501970E99579A029D119E029F88A002A153A304A402A546A711A942AB15AD57B203B30FB603B7F0BB88D420D604D804D904DB04DC33DD30FF
:400A8000DF010010038004280580072008A20B800E210F201020110112401611181019401D201F0520012108220423022601274028A029202A402F823020310833803801F7
:400AC0003B803E204401452047084C044D405611581059405A085B025D02600862026302670A8180832086018D02914192019420972098239A209C049D20A020A210A3016D
:400B0000A601A702AC21B001C0EAC2ABC4ACCA9FCC0ECE29D070D230D68FD83DE040EC2284048C108F1094209C04A310AB40AC18AE02AF02B080B318B520B780E210E64043
:400B4000E870EC803108324037808240CC70E6809F80A5085310568082809F80A508D460E280120813809F80A528A920B310C440E820110275027E208502C408DE05A10151
:400B8000A6204708A101A620D0018902A620A901AB08E0012520A208A528C8201280142036087380828083808820A208AD08C430CC80DC80E280E420EA409902AE2010808C
:400BC00075028C809902C408DE04E602000E01010A0C0C0E0E0A0F01100C1A0C1C0C003B070C0000A28A00004300000010220718010600000301000005047800031C002294
:400C0000083F0700FF2A00103A180406C001071E01320008010000402222050000007F00001F806080200000000004005600000002D00B0006FF7FFF42A070000C000000F0
:400C400000000000040404003303000100094009300900000000000000000000000000000000000000000000000000000000000000001000210ADA14820604180F04601A4C
:400C8000040000012200C000E2001D018612000C820004000400820086000000071E1800E000000100002002000000401600000000EC000213FFFFFF0083030118000000E4
:400CC00001000400040404041199000140004000404080008000800080008000000000000000000000000000000000000000000000000100830050A8AB00AB0000000000E2
:400D0000000B0B0000000000BB00180100000000000000000000000000000000000000000000000000000000000000000000000000000000000000000000000000000000C9
:400D40000000000000000000000000000000000000000000000000000000000000000000000000000000000000000000000000000000000000000000000000000000000073
:400D80000000000000000000000000000000000000000000000000000000000000000000000000000000000000000000000000000000000000000000000000000000000033
:400DC00000000000000000000000000000000000000000000000000000000000000000000000000000000000000000000000000000000000000000000000000000000000F3
:400E000000000000000000000000000000000000000000000000000000000000000000000000000000000000000000000000000000000000000000000000000000000000B2
:0200000490006A
:0400000000004005B7
:0200000490105A
:04000000BC90ACAF55
:0200000490303A
:020000005D366B
:0200000490402A
:4000000000000000000000000000000000000000000000000000000000000000000000000000000000000000000000000000000000000000000000000000000000000000C0
:400040000000000000000000000000000000000000000000000000000000000000000000000000000000000000000000000000000000000000000000000000000000000080
:400080000000000000000000000000000000000000000000000000000000000000000000000000000000000000000000000000000000000000000000000000000000000040
:4000C0000000000000000000000000000000000000000000000000000000000000000000000000000000000000000000000000000000000000000000000000000000000000
:0200000490501A
:0C00000000012E16106900012E3A6D9FC1
:00000001FF